{
  "_format": "hh-sol-artifact-1",
  "contractName": "NFTMarket",
  "sourceName": "contracts/NFTMarket.sol",
  "abi": [
    {
      "anonymous": false,
      "inputs": [
        {
          "indexed": true,
          "internalType": "uint256",
          "name": "itemId",
          "type": "uint256"
        },
        {
          "indexed": true,
          "internalType": "address",
          "name": "nftContract",
          "type": "address"
        },
        {
          "indexed": true,
          "internalType": "uint256",
          "name": "tokenId",
          "type": "uint256"
        },
        {
          "indexed": false,
          "internalType": "address",
          "name": "tokenSeller",
          "type": "address"
        },
        {
          "indexed": false,
          "internalType": "address",
          "name": "tokenOwner",
          "type": "address"
        },
        {
          "indexed": false,
          "internalType": "uint256",
          "name": "price",
          "type": "uint256"
        },
        {
          "indexed": false,
          "internalType": "bool",
          "name": "sold",
          "type": "bool"
        }
      ],
      "name": "MarketItemCreated",
      "type": "event"
    },
    {
      "anonymous": false,
      "inputs": [
        {
          "indexed": true,
          "internalType": "address",
          "name": "previousOwner",
          "type": "address"
        },
        {
          "indexed": true,
          "internalType": "address",
          "name": "newOwner",
          "type": "address"
        }
      ],
      "name": "OwnershipTransferred",
      "type": "event"
    },
    {
      "inputs": [
        {
          "internalType": "address",
          "name": "nftContract",
          "type": "address"
        },
        {
          "internalType": "uint256",
          "name": "itemId",
          "type": "uint256"
        }
      ],
      "name": "buyMarketItem",
      "outputs": [],
      "stateMutability": "payable",
      "type": "function"
    },
    {
      "inputs": [
        {
          "internalType": "address",
          "name": "nftContract",
          "type": "address"
        },
        {
          "internalType": "uint256",
          "name": "itemId",
          "type": "uint256"
        }
      ],
      "name": "cancelListingItemForSale",
      "outputs": [],
      "stateMutability": "nonpayable",
      "type": "function"
    },
    {
      "inputs": [
        {
          "internalType": "address",
          "name": "marketplaceAddress",
          "type": "address"
        },
        {
          "internalType": "string",
          "name": "name",
          "type": "string"
        },
        {
          "internalType": "string",
          "name": "symbol",
          "type": "string"
        }
      ],
      "name": "createCollection",
      "outputs": [],
      "stateMutability": "nonpayable",
      "type": "function"
    },
    {
      "inputs": [],
      "name": "fetchAllListedItems",
      "outputs": [
        {
          "components": [
            {
              "internalType": "uint256",
              "name": "itemId",
              "type": "uint256"
            },
            {
              "internalType": "address",
              "name": "nftContract",
              "type": "address"
            },
            {
              "internalType": "uint256",
              "name": "tokenId",
              "type": "uint256"
            },
            {
              "internalType": "address payable",
              "name": "tokenSeller",
              "type": "address"
            },
            {
              "internalType": "address payable",
              "name": "tokenOwner",
              "type": "address"
            },
            {
              "internalType": "uint256",
              "name": "price",
              "type": "uint256"
            },
            {
              "internalType": "bool",
              "name": "sold",
              "type": "bool"
            }
          ],
          "internalType": "struct NFTMarket.MarketItem[]",
          "name": "",
          "type": "tuple[]"
        }
      ],
      "stateMutability": "view",
      "type": "function"
    },
    {
      "inputs": [],
      "name": "fetchMyListedItems",
      "outputs": [
        {
          "components": [
            {
              "internalType": "uint256",
              "name": "itemId",
              "type": "uint256"
            },
            {
              "internalType": "address",
              "name": "nftContract",
              "type": "address"
            },
            {
              "internalType": "uint256",
              "name": "tokenId",
              "type": "uint256"
            },
            {
              "internalType": "address payable",
              "name": "tokenSeller",
              "type": "address"
            },
            {
              "internalType": "address payable",
              "name": "tokenOwner",
              "type": "address"
            },
            {
              "internalType": "uint256",
              "name": "price",
              "type": "uint256"
            },
            {
              "internalType": "bool",
              "name": "sold",
              "type": "bool"
            }
          ],
          "internalType": "struct NFTMarket.MarketItem[]",
          "name": "",
          "type": "tuple[]"
        }
      ],
      "stateMutability": "view",
      "type": "function"
    },
    {
      "inputs": [],
      "name": "fetchMyPurchasedItems",
      "outputs": [
        {
          "components": [
            {
              "internalType": "uint256",
              "name": "itemId",
              "type": "uint256"
            },
            {
              "internalType": "address",
              "name": "nftContract",
              "type": "address"
            },
            {
              "internalType": "uint256",
              "name": "tokenId",
              "type": "uint256"
            },
            {
              "internalType": "address payable",
              "name": "tokenSeller",
              "type": "address"
            },
            {
              "internalType": "address payable",
              "name": "tokenOwner",
              "type": "address"
            },
            {
              "internalType": "uint256",
              "name": "price",
              "type": "uint256"
            },
            {
              "internalType": "bool",
              "name": "sold",
              "type": "bool"
            }
          ],
          "internalType": "struct NFTMarket.MarketItem[]",
          "name": "",
          "type": "tuple[]"
        }
      ],
      "stateMutability": "view",
      "type": "function"
    },
    {
      "inputs": [],
      "name": "getCollectionListByUser",
      "outputs": [
        {
          "components": [
            {
              "internalType": "contract NFT",
              "name": "nftCollection",
              "type": "address"
            },
            {
              "internalType": "string",
              "name": "name",
              "type": "string"
            },
            {
              "internalType": "string",
              "name": "symbol",
              "type": "string"
            }
          ],
          "internalType": "struct NFTMarket.colectionStruct[]",
          "name": "",
          "type": "tuple[]"
        }
      ],
      "stateMutability": "view",
      "type": "function"
    },
    {
      "inputs": [
        {
          "internalType": "uint256",
          "name": "index",
          "type": "uint256"
        }
      ],
      "name": "getCollectionName",
      "outputs": [
        {
          "internalType": "string",
          "name": "",
          "type": "string"
        }
      ],
      "stateMutability": "view",
      "type": "function"
    },
    {
      "inputs": [],
      "name": "getListingPrice",
      "outputs": [
        {
          "internalType": "uint256",
          "name": "",
          "type": "uint256"
        }
      ],
      "stateMutability": "view",
      "type": "function"
    },
    {
      "inputs": [
        {
          "internalType": "address",
          "name": "nftContract",
          "type": "address"
        },
        {
          "internalType": "uint256",
          "name": "tokenId",
          "type": "uint256"
        },
        {
          "internalType": "uint256",
          "name": "price",
          "type": "uint256"
        }
      ],
      "name": "listingItemForSale",
      "outputs": [],
      "stateMutability": "payable",
      "type": "function"
    },
    {
      "inputs": [],
      "name": "owner",
      "outputs": [
        {
          "internalType": "address",
          "name": "",
          "type": "address"
        }
      ],
      "stateMutability": "view",
      "type": "function"
    },
    {
      "inputs": [],
      "name": "renounceOwnership",
      "outputs": [],
      "stateMutability": "nonpayable",
      "type": "function"
    },
    {
      "inputs": [
        {
          "internalType": "address",
          "name": "newOwner",
          "type": "address"
        }
      ],
      "name": "transferOwnership",
      "outputs": [],
      "stateMutability": "nonpayable",
      "type": "function"
    }
  ],
  "bytecode": "0x608060405266038d7ea4c680006004553480156200001c57600080fd5b50600160008190555062000045620000396200004b60201b60201c565b6200005360201b60201c565b62000119565b600033905090565b6000600160009054906101000a900473ffffffffffffffffffffffffffffffffffffffff16905081600160006101000a81548173ffffffffffffffffffffffffffffffffffffffff021916908373ffffffffffffffffffffffffffffffffffffffff1602179055508173ffffffffffffffffffffffffffffffffffffffff168173ffffffffffffffffffffffffffffffffffffffff167f8be0079c531659141344cd1fd0a4f28419497f9722a3daafe3b4186f6b6457e060405160405180910390a35050565b615e0b80620001296000396000f3fe608060405260043610620000d45760003560e01c8063715018a6116200008b578063986f8ba41162000061578063986f8ba41462000273578063a4a57dbf1462000293578063ab76ce1614620002c3578063f2fde38b14620002f357620000d4565b8063715018a614620002095780638da5cb5b146200022357806398293f89146200025357620000d4565b806312e8558514620000d957806313255c21146200010957806332167971146200013957806335a9c596146200017d5780633c05acd414620001ab5780635fe8607114620001db575b600080fd5b348015620000e657600080fd5b50620000f162000321565b604051620001009190620028d2565b60405180910390f35b3480156200011657600080fd5b50620001216200032b565b60405162000130919062002778565b60405180910390f35b3480156200014657600080fd5b506200016560048036038101906200015f91906200222b565b6200065a565b604051620001749190620027c0565b60405180910390f35b3480156200018a57600080fd5b50620001a96004803603810190620001a39190620020c7565b62000795565b005b348015620001b857600080fd5b50620001c3620008ae565b604051620001d2919062002778565b60405180910390f35b348015620001e857600080fd5b506200020760048036038101906200020191906200214f565b62000c64565b005b3480156200021657600080fd5b506200022162000ed1565b005b3480156200023057600080fd5b506200023b62000f62565b6040516200024a919062002686565b60405180910390f35b6200027160048036038101906200026b919062002190565b62000f8c565b005b6200029160048036038101906200028b91906200214f565b62001303565b005b348015620002a057600080fd5b50620002ab620015b1565b604051620002ba91906200279c565b60405180910390f35b348015620002d057600080fd5b50620002db62001917565b604051620002ea919062002778565b60405180910390f35b3480156200030057600080fd5b506200031f60048036038101906200031991906200209b565b62001ccd565b005b6000600454905090565b606060006200033b600262001dd1565b905060006200034b600362001dd1565b62000357600262001dd1565b62000363919062002a4a565b90506000808267ffffffffffffffff811115620003a9577f4e487b7100000000000000000000000000000000000000000000000000000000600052604160045260246000fd5b604051908082528060200260200182016040528015620003e657816020015b620003d262001ec3565b815260200190600190039081620003c85790505b50905060005b848110156200064f57600073ffffffffffffffffffffffffffffffffffffffff1660056000600184620004209190620029ed565b815260200190815260200160002060040160009054906101000a900473ffffffffffffffffffffffffffffffffffffffff1673ffffffffffffffffffffffffffffffffffffffff16141562000639576000600182620004809190620029ed565b90506000600560008381526020019081526020016000209050806040518060e0016040529081600082015481526020016001820160009054906101000a900473ffffffffffffffffffffffffffffffffffffffff1673ffffffffffffffffffffffffffffffffffffffff1673ffffffffffffffffffffffffffffffffffffffff168152602001600282015481526020016003820160009054906101000a900473ffffffffffffffffffffffffffffffffffffffff1673ffffffffffffffffffffffffffffffffffffffff1673ffffffffffffffffffffffffffffffffffffffff1681526020016004820160009054906101000a900473ffffffffffffffffffffffffffffffffffffffff1673ffffffffffffffffffffffffffffffffffffffff1673ffffffffffffffffffffffffffffffffffffffff168152602001600582015481526020016006820160009054906101000a900460ff1615151515815250508486815181106200061a577f4e487b7100000000000000000000000000000000000000000000000000000000600052603260045260246000fd5b6020026020010181905250600185620006349190620029ed565b945050505b8080620006469062002b86565b915050620003ec565b508094505050505090565b60606000600660003373ffffffffffffffffffffffffffffffffffffffff1673ffffffffffffffffffffffffffffffffffffffff1681526020019081526020016000208381548110620006d6577f4e487b7100000000000000000000000000000000000000000000000000000000600052603260045260246000fd5b9060005260206000200160000160009054906101000a900473ffffffffffffffffffffffffffffffffffffffff1690508073ffffffffffffffffffffffffffffffffffffffff166306fdde036040518163ffffffff1660e01b815260040160006040518083038186803b1580156200074d57600080fd5b505afa15801562000762573d6000803e3d6000fd5b505050506040513d6000823e3d601f19601f820116820180604052508101906200078d9190620021e6565b915050919050565b6000838383604051620007a89062001f44565b620007b6939291906200272d565b604051809103906000f080158015620007d3573d6000803e3d6000fd5b509050600660003373ffffffffffffffffffffffffffffffffffffffff1673ffffffffffffffffffffffffffffffffffffffff16815260200190815260200160002060405180602001604052808373ffffffffffffffffffffffffffffffffffffffff168152509080600181540180825580915050600190039060005260206000200160009091909190915060008201518160000160006101000a81548173ffffffffffffffffffffffffffffffffffffffff021916908373ffffffffffffffffffffffffffffffffffffffff160217905550505050505050565b60606000620008be600262001dd1565b905060008060005b8381101562000970573373ffffffffffffffffffffffffffffffffffffffff1660056000600184620008f99190620029ed565b815260200190815260200160002060030160009054906101000a900473ffffffffffffffffffffffffffffffffffffffff1673ffffffffffffffffffffffffffffffffffffffff1614156200095a57600183620009579190620029ed565b92505b8080620009679062002b86565b915050620008c6565b5060008267ffffffffffffffff811115620009b4577f4e487b7100000000000000000000000000000000000000000000000000000000600052604160045260246000fd5b604051908082528060200260200182016040528015620009f157816020015b620009dd62001ec3565b815260200190600190039081620009d35790505b50905060005b8481101562000c59573373ffffffffffffffffffffffffffffffffffffffff166005600060018462000a2a9190620029ed565b815260200190815260200160002060030160009054906101000a900473ffffffffffffffffffffffffffffffffffffffff1673ffffffffffffffffffffffffffffffffffffffff16141562000c4357600060018262000a8a9190620029ed565b90506000600560008381526020019081526020016000209050806040518060e0016040529081600082015481526020016001820160009054906101000a900473ffffffffffffffffffffffffffffffffffffffff1673ffffffffffffffffffffffffffffffffffffffff1673ffffffffffffffffffffffffffffffffffffffff168152602001600282015481526020016003820160009054906101000a900473ffffffffffffffffffffffffffffffffffffffff1673ffffffffffffffffffffffffffffffffffffffff1673ffffffffffffffffffffffffffffffffffffffff1681526020016004820160009054906101000a900473ffffffffffffffffffffffffffffffffffffffff1673ffffffffffffffffffffffffffffffffffffffff1673ffffffffffffffffffffffffffffffffffffffff168152602001600582015481526020016006820160009054906101000a900460ff16151515158152505084868151811062000c24577f4e487b7100000000000000000000000000000000000000000000000000000000600052603260045260246000fd5b602002602001018190525060018562000c3e9190620029ed565b945050505b808062000c509062002b86565b915050620009f7565b508094505050505090565b6002600054141562000cad576040517f08c379a000000000000000000000000000000000000000000000000000000000815260040162000ca4906200288e565b60405180910390fd5b60026000819055506005600082815260200190815260200160002060030160009054906101000a900473ffffffffffffffffffffffffffffffffffffffff1673ffffffffffffffffffffffffffffffffffffffff163373ffffffffffffffffffffffffffffffffffffffff161462000d5c576040517f08c379a000000000000000000000000000000000000000000000000000000000815260040162000d53906200286c565b60405180910390fd5b600060056000838152602001908152602001600020600201549050336005600084815260200190815260200160002060040160006101000a81548173ffffffffffffffffffffffffffffffffffffffff021916908373ffffffffffffffffffffffffffffffffffffffff16021790555060016005600084815260200190815260200160002060060160006101000a81548160ff02191690831515021790555062000e07600362001ddf565b8273ffffffffffffffffffffffffffffffffffffffff166323b872dd3033846040518463ffffffff1660e01b815260040162000e4693929190620026a3565b600060405180830381600087803b15801562000e6157600080fd5b505af115801562000e76573d6000803e3d6000fd5b505050503373ffffffffffffffffffffffffffffffffffffffff166108fc6004549081150290604051600060405180830381858888f1935050505015801562000ec3573d6000803e3d6000fd5b505060016000819055505050565b62000edb62001df5565b73ffffffffffffffffffffffffffffffffffffffff1662000efb62000f62565b73ffffffffffffffffffffffffffffffffffffffff161462000f54576040517f08c379a000000000000000000000000000000000000000000000000000000000815260040162000f4b9062002828565b60405180910390fd5b62000f60600062001dfd565b565b6000600160009054906101000a900473ffffffffffffffffffffffffffffffffffffffff16905090565b6002600054141562000fd5576040517f08c379a000000000000000000000000000000000000000000000000000000000815260040162000fcc906200288e565b60405180910390fd5b60026000819055506000811162001023576040517f08c379a00000000000000000000000000000000000000000000000000000000081526004016200101a90620028b0565b60405180910390fd5b60045434146200106a576040517f08c379a000000000000000000000000000000000000000000000000000000000815260040162001061906200284a565b60405180910390fd5b62001076600262001ddf565b600062001084600262001dd1565b90506040518060e001604052808281526020018573ffffffffffffffffffffffffffffffffffffffff1681526020018481526020013373ffffffffffffffffffffffffffffffffffffffff168152602001600073ffffffffffffffffffffffffffffffffffffffff16815260200183815260200160001515815250600560008381526020019081526020016000206000820151816000015560208201518160010160006101000a81548173ffffffffffffffffffffffffffffffffffffffff021916908373ffffffffffffffffffffffffffffffffffffffff1602179055506040820151816002015560608201518160030160006101000a81548173ffffffffffffffffffffffffffffffffffffffff021916908373ffffffffffffffffffffffffffffffffffffffff16021790555060808201518160040160006101000a81548173ffffffffffffffffffffffffffffffffffffffff021916908373ffffffffffffffffffffffffffffffffffffffff16021790555060a0820151816005015560c08201518160060160006101000a81548160ff0219169083151502179055509050508373ffffffffffffffffffffffffffffffffffffffff166323b872dd3330866040518463ffffffff1660e01b81526004016200126793929190620026a3565b600060405180830381600087803b1580156200128257600080fd5b505af115801562001297573d6000803e3d6000fd5b50505050828473ffffffffffffffffffffffffffffffffffffffff16827f045dfa01dcba2b36aba1d3dc4a874f4b0c5d2fbeb8d2c4b34a7d88c8d8f929d1336000876000604051620012ed9493929190620026e0565b60405180910390a4506001600081905550505050565b600260005414156200134c576040517f08c379a000000000000000000000000000000000000000000000000000000000815260040162001343906200288e565b60405180910390fd5b6002600081905550600060056000838152602001908152602001600020600501549050600060056000848152602001908152602001600020600201549050813414620013cf576040517f08c379a0000000000000000000000000000000000000000000000000000000008152600401620013c69062002806565b60405180910390fd5b6005600084815260200190815260200160002060030160009054906101000a900473ffffffffffffffffffffffffffffffffffffffff1673ffffffffffffffffffffffffffffffffffffffff166108fc349081150290604051600060405180830381858888f193505050501580156200144c573d6000803e3d6000fd5b508373ffffffffffffffffffffffffffffffffffffffff166323b872dd3033846040518463ffffffff1660e01b81526004016200148c93929190620026a3565b600060405180830381600087803b158015620014a757600080fd5b505af1158015620014bc573d6000803e3d6000fd5b50505050336005600085815260200190815260200160002060040160006101000a81548173ffffffffffffffffffffffffffffffffffffffff021916908373ffffffffffffffffffffffffffffffffffffffff16021790555060016005600085815260200190815260200160002060060160006101000a81548160ff02191690831515021790555062001550600362001ddf565b6200155a62000f62565b73ffffffffffffffffffffffffffffffffffffffff166108fc6004549081150290604051600060405180830381858888f19350505050158015620015a2573d6000803e3d6000fd5b50505060016000819055505050565b60606000600660003373ffffffffffffffffffffffffffffffffffffffff1673ffffffffffffffffffffffffffffffffffffffff1681526020019081526020016000208054905067ffffffffffffffff81111562001638577f4e487b7100000000000000000000000000000000000000000000000000000000600052604160045260246000fd5b6040519080825280602002602001820160405280156200167557816020015b6200166162001f52565b815260200190600190039081620016575790505b50905060005b600660003373ffffffffffffffffffffffffffffffffffffffff1673ffffffffffffffffffffffffffffffffffffffff168152602001908152602001600020805490508110156200190f576000600660003373ffffffffffffffffffffffffffffffffffffffff1673ffffffffffffffffffffffffffffffffffffffff168152602001908152602001600020828154811062001740577f4e487b7100000000000000000000000000000000000000000000000000000000600052603260045260246000fd5b9060005260206000200160000160009054906101000a900473ffffffffffffffffffffffffffffffffffffffff169050600060405180606001604052808373ffffffffffffffffffffffffffffffffffffffff1681526020018373ffffffffffffffffffffffffffffffffffffffff166306fdde036040518163ffffffff1660e01b815260040160006040518083038186803b158015620017e057600080fd5b505afa158015620017f5573d6000803e3d6000fd5b505050506040513d6000823e3d601f19601f82011682018060405250810190620018209190620021e6565b81526020018373ffffffffffffffffffffffffffffffffffffffff166395d89b416040518163ffffffff1660e01b815260040160006040518083038186803b1580156200186c57600080fd5b505afa15801562001881573d6000803e3d6000fd5b505050506040513d6000823e3d601f19601f82011682018060405250810190620018ac9190620021e6565b815250905080848481518110620018ec577f4e487b7100000000000000000000000000000000000000000000000000000000600052603260045260246000fd5b602002602001018190525050508080620019069062002b86565b9150506200167b565b508091505090565b6060600062001927600262001dd1565b905060008060005b83811015620019d9573373ffffffffffffffffffffffffffffffffffffffff1660056000600184620019629190620029ed565b815260200190815260200160002060040160009054906101000a900473ffffffffffffffffffffffffffffffffffffffff1673ffffffffffffffffffffffffffffffffffffffff161415620019c357600183620019c09190620029ed565b92505b8080620019d09062002b86565b9150506200192f565b5060008267ffffffffffffffff81111562001a1d577f4e487b7100000000000000000000000000000000000000000000000000000000600052604160045260246000fd5b60405190808252806020026020018201604052801562001a5a57816020015b62001a4662001ec3565b81526020019060019003908162001a3c5790505b50905060005b8481101562001cc2573373ffffffffffffffffffffffffffffffffffffffff166005600060018462001a939190620029ed565b815260200190815260200160002060040160009054906101000a900473ffffffffffffffffffffffffffffffffffffffff1673ffffffffffffffffffffffffffffffffffffffff16141562001cac57600060018262001af39190620029ed565b90506000600560008381526020019081526020016000209050806040518060e0016040529081600082015481526020016001820160009054906101000a900473ffffffffffffffffffffffffffffffffffffffff1673ffffffffffffffffffffffffffffffffffffffff1673ffffffffffffffffffffffffffffffffffffffff168152602001600282015481526020016003820160009054906101000a900473ffffffffffffffffffffffffffffffffffffffff1673ffffffffffffffffffffffffffffffffffffffff1673ffffffffffffffffffffffffffffffffffffffff1681526020016004820160009054906101000a900473ffffffffffffffffffffffffffffffffffffffff1673ffffffffffffffffffffffffffffffffffffffff1673ffffffffffffffffffffffffffffffffffffffff168152602001600582015481526020016006820160009054906101000a900460ff16151515158152505084868151811062001c8d577f4e487b7100000000000000000000000000000000000000000000000000000000600052603260045260246000fd5b602002602001018190525060018562001ca79190620029ed565b945050505b808062001cb99062002b86565b91505062001a60565b508094505050505090565b62001cd762001df5565b73ffffffffffffffffffffffffffffffffffffffff1662001cf762000f62565b73ffffffffffffffffffffffffffffffffffffffff161462001d50576040517f08c379a000000000000000000000000000000000000000000000000000000000815260040162001d479062002828565b60405180910390fd5b600073ffffffffffffffffffffffffffffffffffffffff168173ffffffffffffffffffffffffffffffffffffffff16141562001dc3576040517f08c379a000000000000000000000000000000000000000000000000000000000815260040162001dba90620027e4565b60405180910390fd5b62001dce8162001dfd565b50565b600081600001549050919050565b6001816000016000828254019250508190555050565b600033905090565b6000600160009054906101000a900473ffffffffffffffffffffffffffffffffffffffff16905081600160006101000a81548173ffffffffffffffffffffffffffffffffffffffff021916908373ffffffffffffffffffffffffffffffffffffffff1602179055508173ffffffffffffffffffffffffffffffffffffffff168173ffffffffffffffffffffffffffffffffffffffff167f8be0079c531659141344cd1fd0a4f28419497f9722a3daafe3b4186f6b6457e060405160405180910390a35050565b6040518060e0016040528060008152602001600073ffffffffffffffffffffffffffffffffffffffff16815260200160008152602001600073ffffffffffffffffffffffffffffffffffffffff168152602001600073ffffffffffffffffffffffffffffffffffffffff168152602001600081526020016000151581525090565b612fcd8062002e0983390190565b6040518060600160405280600073ffffffffffffffffffffffffffffffffffffffff16815260200160608152602001606081525090565b600062001fa062001f9a8462002918565b620028ef565b90508281526020810184848401111562001fb957600080fd5b62001fc684828562002b0b565b509392505050565b600062001fe562001fdf8462002918565b620028ef565b90508281526020810184848401111562001ffe57600080fd5b6200200b84828562002b1a565b509392505050565b600081359050620020248162002dd4565b92915050565b600082601f8301126200203c57600080fd5b81356200204e84826020860162001f89565b91505092915050565b600082601f8301126200206957600080fd5b81516200207b84826020860162001fce565b91505092915050565b600081359050620020958162002dee565b92915050565b600060208284031215620020ae57600080fd5b6000620020be8482850162002013565b91505092915050565b600080600060608486031215620020dd57600080fd5b6000620020ed8682870162002013565b935050602084013567ffffffffffffffff8111156200210b57600080fd5b62002119868287016200202a565b925050604084013567ffffffffffffffff8111156200213757600080fd5b62002145868287016200202a565b9150509250925092565b600080604083850312156200216357600080fd5b6000620021738582860162002013565b9250506020620021868582860162002084565b9150509250929050565b600080600060608486031215620021a657600080fd5b6000620021b68682870162002013565b9350506020620021c98682870162002084565b9250506040620021dc8682870162002084565b9150509250925092565b600060208284031215620021f957600080fd5b600082015167ffffffffffffffff8111156200221457600080fd5b620022228482850162002057565b91505092915050565b6000602082840312156200223e57600080fd5b60006200224e8482850162002084565b91505092915050565b60006200226583836200256b565b60e08301905092915050565b60006200227f838362002607565b905092915050565b620022928162002a99565b82525050565b620022a38162002a85565b82525050565b620022b48162002a85565b82525050565b6000620022c7826200296e565b620022d38185620029a9565b9350620022e0836200294e565b8060005b8381101562002317578151620022fb888262002257565b975062002308836200298f565b925050600181019050620022e4565b5085935050505092915050565b6000620023318262002979565b6200233d8185620029ba565b93508360208202850162002351856200295e565b8060005b8581101562002393578484038952815162002371858262002271565b94506200237e836200299c565b925060208a0199505060018101905062002355565b50829750879550505050505092915050565b620023b08162002aad565b82525050565b620023c18162002aad565b82525050565b620023d28162002ae3565b82525050565b6000620023e58262002984565b620023f18185620029cb565b93506200240381856020860162002b1a565b6200240e8162002c32565b840191505092915050565b6000620024268262002984565b620024328185620029dc565b93506200244481856020860162002b1a565b6200244f8162002c32565b840191505092915050565b600062002469602683620029dc565b9150620024768262002c43565b604082019050919050565b600062002490604083620029dc565b91506200249d8262002c92565b604082019050919050565b6000620024b7602083620029dc565b9150620024c48262002ce1565b602082019050919050565b6000620024de602483620029dc565b9150620024eb8262002d0a565b604082019050919050565b600062002505602083620029dc565b9150620025128262002d59565b602082019050919050565b60006200252c601f83620029dc565b9150620025398262002d82565b602082019050919050565b600062002553601c83620029dc565b9150620025608262002dab565b602082019050919050565b60e08201600082015162002583600085018262002664565b50602082015162002598602085018262002298565b506040820151620025ad604085018262002664565b506060820151620025c2606085018262002287565b506080820151620025d7608085018262002287565b5060a0820151620025ec60a085018262002664565b5060c08201516200260160c0850182620023a5565b50505050565b6000606083016000830151620026216000860182620023c7565b50602083015184820360208601526200263b8282620023d8565b91505060408301518482036040860152620026578282620023d8565b9150508091505092915050565b6200266f8162002ad9565b82525050565b620026808162002ad9565b82525050565b60006020820190506200269d6000830184620022a9565b92915050565b6000606082019050620026ba6000830186620022a9565b620026c96020830185620022a9565b620026d8604083018462002675565b949350505050565b6000608082019050620026f76000830187620022a9565b620027066020830186620022a9565b62002715604083018562002675565b620027246060830184620023b6565b95945050505050565b6000606082019050620027446000830186620022a9565b818103602083015262002758818562002419565b905081810360408301526200276e818462002419565b9050949350505050565b60006020820190508181036000830152620027948184620022ba565b905092915050565b60006020820190508181036000830152620027b8818462002324565b905092915050565b60006020820190508181036000830152620027dc818462002419565b905092915050565b60006020820190508181036000830152620027ff816200245a565b9050919050565b60006020820190508181036000830152620028218162002481565b9050919050565b600060208201905081810360008301526200284381620024a8565b9050919050565b600060208201905081810360008301526200286581620024cf565b9050919050565b600060208201905081810360008301526200288781620024f6565b9050919050565b60006020820190508181036000830152620028a9816200251d565b9050919050565b60006020820190508181036000830152620028cb8162002544565b9050919050565b6000602082019050620028e9600083018462002675565b92915050565b6000620028fb6200290e565b905062002909828262002b50565b919050565b6000604051905090565b600067ffffffffffffffff82111562002936576200293562002c03565b5b620029418262002c32565b9050602081019050919050565b6000819050602082019050919050565b6000819050602082019050919050565b600081519050919050565b600081519050919050565b600081519050919050565b6000602082019050919050565b6000602082019050919050565b600082825260208201905092915050565b600082825260208201905092915050565b600082825260208201905092915050565b600082825260208201905092915050565b6000620029fa8262002ad9565b915062002a078362002ad9565b9250827fffffffffffffffffffffffffffffffffffffffffffffffffffffffffffffffff0382111562002a3f5762002a3e62002bd4565b5b828201905092915050565b600062002a578262002ad9565b915062002a648362002ad9565b92508282101562002a7a5762002a7962002bd4565b5b828203905092915050565b600062002a928262002ab9565b9050919050565b600062002aa68262002ab9565b9050919050565b60008115159050919050565b600073ffffffffffffffffffffffffffffffffffffffff82169050919050565b6000819050919050565b600062002af08262002af7565b9050919050565b600062002b048262002ab9565b9050919050565b82818337600083830152505050565b60005b8381101562002b3a57808201518184015260208101905062002b1d565b8381111562002b4a576000848401525b50505050565b62002b5b8262002c32565b810181811067ffffffffffffffff8211171562002b7d5762002b7c62002c03565b5b80604052505050565b600062002b938262002ad9565b91507fffffffffffffffffffffffffffffffffffffffffffffffffffffffffffffffff82141562002bc95762002bc862002bd4565b5b600182019050919050565b7f4e487b7100000000000000000000000000000000000000000000000000000000600052601160045260246000fd5b7f4e487b7100000000000000000000000000000000000000000000000000000000600052604160045260246000fd5b6000601f19601f8301169050919050565b7f4f776e61626c653a206e6577206f776e657220697320746865207a65726f206160008201527f6464726573730000000000000000000000000000000000000000000000000000602082015250565b7f506c65617365207375626d6974207468652061736b696e67207072696365206960008201527f6e206f7264657220746f20636f6d706c65746520746865207075726368617365602082015250565b7f4f776e61626c653a2063616c6c6572206973206e6f7420746865206f776e6572600082015250565b7f5072696365206d75737420626520657175616c20746f206c697374696e67207060008201527f7269636500000000000000000000000000000000000000000000000000000000602082015250565b7f616472657373206973206e6f7420746865206f776e6572206f6620746f6b656e600082015250565b7f5265656e7472616e637947756172643a207265656e7472616e742063616c6c00600082015250565b7f5072696365206d757374206265206174206c6561737420312077656900000000600082015250565b62002ddf8162002a85565b811462002deb57600080fd5b50565b62002df98162002ad9565b811462002e0557600080fd5b5056fe60806040523480156200001157600080fd5b5060405162002fcd38038062002fcd8339818101604052810190620000379190620001f0565b8181816000908051906020019062000051929190620000b7565b5080600190805190602001906200006a929190620000b7565b50505082600860006101000a81548173ffffffffffffffffffffffffffffffffffffffff021916908373ffffffffffffffffffffffffffffffffffffffff16021790555050505062000436565b828054620000c59062000341565b90600052602060002090601f016020900481019282620000e9576000855562000135565b82601f106200010457805160ff191683800117855562000135565b8280016001018555821562000135579182015b828111156200013457825182559160200191906001019062000117565b5b50905062000144919062000148565b5090565b5b808211156200016357600081600090555060010162000149565b5090565b60006200017e6200017884620002a1565b62000278565b9050828152602081018484840111156200019757600080fd5b620001a48482856200030b565b509392505050565b600081519050620001bd816200041c565b92915050565b600082601f830112620001d557600080fd5b8151620001e784826020860162000167565b91505092915050565b6000806000606084860312156200020657600080fd5b60006200021686828701620001ac565b935050602084015167ffffffffffffffff8111156200023457600080fd5b6200024286828701620001c3565b925050604084015167ffffffffffffffff8111156200026057600080fd5b6200026e86828701620001c3565b9150509250925092565b60006200028462000297565b905062000292828262000377565b919050565b6000604051905090565b600067ffffffffffffffff821115620002bf57620002be620003dc565b5b620002ca826200040b565b9050602081019050919050565b6000620002e482620002eb565b9050919050565b600073ffffffffffffffffffffffffffffffffffffffff82169050919050565b60005b838110156200032b5780820151818401526020810190506200030e565b838111156200033b576000848401525b50505050565b600060028204905060018216806200035a57607f821691505b60208210811415620003715762000370620003ad565b5b50919050565b62000382826200040b565b810181811067ffffffffffffffff82111715620003a457620003a3620003dc565b5b80604052505050565b7f4e487b7100000000000000000000000000000000000000000000000000000000600052602260045260246000fd5b7f4e487b7100000000000000000000000000000000000000000000000000000000600052604160045260246000fd5b6000601f19601f8301169050919050565b6200042781620002d7565b81146200043357600080fd5b50565b612b8780620004466000396000f3fe608060405234801561001057600080fd5b50600436106100ea5760003560e01c80636352211e1161008c578063a22cb46511610066578063a22cb4651461026f578063b88d4fde1461028b578063c87b56dd146102a7578063e985e9c5146102d7576100ea565b80636352211e146101f157806370a082311461022157806395d89b4114610251576100ea565b8063095ea7b3116100c8578063095ea7b31461016d57806323b872dd1461018957806342842e0e146101a557806345576f94146101c1576100ea565b806301ffc9a7146100ef57806306fdde031461011f578063081812fc1461013d575b600080fd5b61010960048036038101906101049190611bf3565b610307565b604051610116919061203a565b60405180910390f35b6101276103e9565b6040516101349190612055565b60405180910390f35b61015760048036038101906101529190611c86565b61047b565b6040516101649190611fd3565b60405180910390f35b61018760048036038101906101829190611bb7565b610500565b005b6101a3600480360381019061019e9190611ab1565b610618565b005b6101bf60048036038101906101ba9190611ab1565b610678565b005b6101db60048036038101906101d69190611c45565b610698565b6040516101e89190612277565b60405180910390f35b61020b60048036038101906102069190611c86565b6106fc565b6040516102189190611fd3565b60405180910390f35b61023b60048036038101906102369190611a4c565b6107ae565b6040516102489190612277565b60405180910390f35b610259610866565b6040516102669190612055565b60405180910390f35b61028960048036038101906102849190611b7b565b6108f8565b005b6102a560048036038101906102a09190611b00565b61090e565b005b6102c160048036038101906102bc9190611c86565b610970565b6040516102ce9190612055565b60405180910390f35b6102f160048036038101906102ec9190611a75565b610ac2565b6040516102fe919061203a565b60405180910390f35b60007f80ac58cd000000000000000000000000000000000000000000000000000000007bffffffffffffffffffffffffffffffffffffffffffffffffffffffff1916827bffffffffffffffffffffffffffffffffffffffffffffffffffffffff191614806103d257507f5b5e139f000000000000000000000000000000000000000000000000000000007bffffffffffffffffffffffffffffffffffffffffffffffffffffffff1916827bffffffffffffffffffffffffffffffffffffffffffffffffffffffff1916145b806103e257506103e182610b56565b5b9050919050565b6060600080546103f8906124cd565b80601f0160208091040260200160405190810160405280929190818152602001828054610424906124cd565b80156104715780601f1061044657610100808354040283529160200191610471565b820191906000526020600020905b81548152906001019060200180831161045457829003601f168201915b5050505050905090565b600061048682610bc0565b6104c5576040517f08c379a00000000000000000000000000000000000000000000000000000000081526004016104bc906121d7565b60405180910390fd5b6004600083815260200190815260200160002060009054906101000a900473ffffffffffffffffffffffffffffffffffffffff169050919050565b600061050b826106fc565b90508073ffffffffffffffffffffffffffffffffffffffff168373ffffffffffffffffffffffffffffffffffffffff16141561057c576040517f08c379a000000000000000000000000000000000000000000000000000000000815260040161057390612237565b60405180910390fd5b8073ffffffffffffffffffffffffffffffffffffffff1661059b610c2c565b73ffffffffffffffffffffffffffffffffffffffff1614806105ca57506105c9816105c4610c2c565b610ac2565b5b610609576040517f08c379a000000000000000000000000000000000000000000000000000000000815260040161060090612117565b60405180910390fd5b6106138383610c34565b505050565b610629610623610c2c565b82610ced565b610668576040517f08c379a000000000000000000000000000000000000000000000000000000000815260040161065f90612257565b60405180910390fd5b610673838383610dcb565b505050565b6106938383836040518060200160405280600081525061090e565b505050565b60006106a46007611027565b60006106b0600761103d565b90506106bc338261104b565b6106c68184611219565b6106f3600860009054906101000a900473ffffffffffffffffffffffffffffffffffffffff1660016108f8565b80915050919050565b6000806002600084815260200190815260200160002060009054906101000a900473ffffffffffffffffffffffffffffffffffffffff169050600073ffffffffffffffffffffffffffffffffffffffff168173ffffffffffffffffffffffffffffffffffffffff1614156107a5576040517f08c379a000000000000000000000000000000000000000000000000000000000815260040161079c90612157565b60405180910390fd5b80915050919050565b60008073ffffffffffffffffffffffffffffffffffffffff168273ffffffffffffffffffffffffffffffffffffffff16141561081f576040517f08c379a000000000000000000000000000000000000000000000000000000000815260040161081690612137565b60405180910390fd5b600360008373ffffffffffffffffffffffffffffffffffffffff1673ffffffffffffffffffffffffffffffffffffffff168152602001908152602001600020549050919050565b606060018054610875906124cd565b80601f01602080910402602001604051908101604052809291908181526020018280546108a1906124cd565b80156108ee5780601f106108c3576101008083540402835291602001916108ee565b820191906000526020600020905b8154815290600101906020018083116108d157829003601f168201915b5050505050905090565b61090a610903610c2c565b838361128d565b5050565b61091f610919610c2c565b83610ced565b61095e576040517f08c379a000000000000000000000000000000000000000000000000000000000815260040161095590612257565b60405180910390fd5b61096a848484846113fa565b50505050565b606061097b82610bc0565b6109ba576040517f08c379a00000000000000000000000000000000000000000000000000000000081526004016109b1906121b7565b60405180910390fd5b60006006600084815260200190815260200160002080546109da906124cd565b80601f0160208091040260200160405190810160405280929190818152602001828054610a06906124cd565b8015610a535780601f10610a2857610100808354040283529160200191610a53565b820191906000526020600020905b815481529060010190602001808311610a3657829003601f168201915b505050505090506000610a64611456565b9050600081511415610a7a578192505050610abd565b600082511115610aaf578082604051602001610a97929190611faf565b60405160208183030381529060405292505050610abd565b610ab88461146d565b925050505b919050565b6000600560008473ffffffffffffffffffffffffffffffffffffffff1673ffffffffffffffffffffffffffffffffffffffff16815260200190815260200160002060008373ffffffffffffffffffffffffffffffffffffffff1673ffffffffffffffffffffffffffffffffffffffff16815260200190815260200160002060009054906101000a900460ff16905092915050565b60007f01ffc9a7000000000000000000000000000000000000000000000000000000007bffffffffffffffffffffffffffffffffffffffffffffffffffffffff1916827bffffffffffffffffffffffffffffffffffffffffffffffffffffffff1916149050919050565b60008073ffffffffffffffffffffffffffffffffffffffff166002600084815260200190815260200160002060009054906101000a900473ffffffffffffffffffffffffffffffffffffffff1673ffffffffffffffffffffffffffffffffffffffff1614159050919050565b600033905090565b816004600083815260200190815260200160002060006101000a81548173ffffffffffffffffffffffffffffffffffffffff021916908373ffffffffffffffffffffffffffffffffffffffff160217905550808273ffffffffffffffffffffffffffffffffffffffff16610ca7836106fc565b73ffffffffffffffffffffffffffffffffffffffff167f8c5be1e5ebec7d5bd14f71427d1e84f3dd0314c0f7b2291e5b200ac8c7c3b92560405160405180910390a45050565b6000610cf882610bc0565b610d37576040517f08c379a0000000000000000000000000000000000000000000000000000000008152600401610d2e906120f7565b60405180910390fd5b6000610d42836106fc565b90508073ffffffffffffffffffffffffffffffffffffffff168473ffffffffffffffffffffffffffffffffffffffff161480610db157508373ffffffffffffffffffffffffffffffffffffffff16610d998461047b565b73ffffffffffffffffffffffffffffffffffffffff16145b80610dc25750610dc18185610ac2565b5b91505092915050565b8273ffffffffffffffffffffffffffffffffffffffff16610deb826106fc565b73ffffffffffffffffffffffffffffffffffffffff1614610e41576040517f08c379a0000000000000000000000000000000000000000000000000000000008152600401610e38906121f7565b60405180910390fd5b600073ffffffffffffffffffffffffffffffffffffffff168273ffffffffffffffffffffffffffffffffffffffff161415610eb1576040517f08c379a0000000000000000000000000000000000000000000000000000000008152600401610ea8906120b7565b60405180910390fd5b610ebc838383611514565b610ec7600082610c34565b6001600360008573ffffffffffffffffffffffffffffffffffffffff1673ffffffffffffffffffffffffffffffffffffffff1681526020019081526020016000206000828254610f1791906123e3565b925050819055506001600360008473ffffffffffffffffffffffffffffffffffffffff1673ffffffffffffffffffffffffffffffffffffffff1681526020019081526020016000206000828254610f6e919061235c565b92505081905550816002600083815260200190815260200160002060006101000a81548173ffffffffffffffffffffffffffffffffffffffff021916908373ffffffffffffffffffffffffffffffffffffffff160217905550808273ffffffffffffffffffffffffffffffffffffffff168473ffffffffffffffffffffffffffffffffffffffff167fddf252ad1be2c89b69c2b068fc378daa952ba7f163c4a11628f55a4df523b3ef60405160405180910390a4505050565b6001816000016000828254019250508190555050565b600081600001549050919050565b600073ffffffffffffffffffffffffffffffffffffffff168273ffffffffffffffffffffffffffffffffffffffff1614156110bb576040517f08c379a00000000000000000000000000000000000000000000000000000000081526004016110b290612197565b60405180910390fd5b6110c481610bc0565b15611104576040517f08c379a00000000000000000000000000000000000000000000000000000000081526004016110fb90612097565b60405180910390fd5b61111060008383611514565b6001600360008473ffffffffffffffffffffffffffffffffffffffff1673ffffffffffffffffffffffffffffffffffffffff1681526020019081526020016000206000828254611160919061235c565b92505081905550816002600083815260200190815260200160002060006101000a81548173ffffffffffffffffffffffffffffffffffffffff021916908373ffffffffffffffffffffffffffffffffffffffff160217905550808273ffffffffffffffffffffffffffffffffffffffff16600073ffffffffffffffffffffffffffffffffffffffff167fddf252ad1be2c89b69c2b068fc378daa952ba7f163c4a11628f55a4df523b3ef60405160405180910390a45050565b61122282610bc0565b611261576040517f08c379a000000000000000000000000000000000000000000000000000000000815260040161125890612177565b60405180910390fd5b80600660008481526020019081526020016000209080519060200190611288929190611870565b505050565b8173ffffffffffffffffffffffffffffffffffffffff168373ffffffffffffffffffffffffffffffffffffffff1614156112fc576040517f08c379a00000000000000000000000000000000000000000000000000000000081526004016112f3906120d7565b60405180910390fd5b80600560008573ffffffffffffffffffffffffffffffffffffffff1673ffffffffffffffffffffffffffffffffffffffff16815260200190815260200160002060008473ffffffffffffffffffffffffffffffffffffffff1673ffffffffffffffffffffffffffffffffffffffff16815260200190815260200160002060006101000a81548160ff0219169083151502179055508173ffffffffffffffffffffffffffffffffffffffff168373ffffffffffffffffffffffffffffffffffffffff167f17307eab39ab6107e8899845ad3d59bd9653f200f220920489ca2b5937696c31836040516113ed919061203a565b60405180910390a3505050565b611405848484610dcb565b61141184848484611519565b611450576040517f08c379a000000000000000000000000000000000000000000000000000000000815260040161144790612077565b60405180910390fd5b50505050565b606060405180602001604052806000815250905090565b606061147882610bc0565b6114b7576040517f08c379a00000000000000000000000000000000000000000000000000000000081526004016114ae90612217565b60405180910390fd5b60006114c1611456565b905060008151116114e1576040518060200160405280600081525061150c565b806114eb846116b0565b6040516020016114fc929190611faf565b6040516020818303038152906040525b915050919050565b505050565b600061153a8473ffffffffffffffffffffffffffffffffffffffff1661185d565b156116a3578373ffffffffffffffffffffffffffffffffffffffff1663150b7a02611563610c2c565b8786866040518563ffffffff1660e01b81526004016115859493929190611fee565b602060405180830381600087803b15801561159f57600080fd5b505af19250505080156115d057506040513d601f19601f820116820180604052508101906115cd9190611c1c565b60015b611653573d8060008114611600576040519150601f19603f3d011682016040523d82523d6000602084013e611605565b606091505b5060008151141561164b576040517f08c379a000000000000000000000000000000000000000000000000000000000815260040161164290612077565b60405180910390fd5b805181602001fd5b63150b7a0260e01b7bffffffffffffffffffffffffffffffffffffffffffffffffffffffff1916817bffffffffffffffffffffffffffffffffffffffffffffffffffffffff1916149150506116a8565b600190505b949350505050565b606060008214156116f8576040518060400160405280600181526020017f30000000000000000000000000000000000000000000000000000000000000008152509050611858565b600082905060005b6000821461172a57808061171390612530565b915050600a8261172391906123b2565b9150611700565b60008167ffffffffffffffff81111561176c577f4e487b7100000000000000000000000000000000000000000000000000000000600052604160045260246000fd5b6040519080825280601f01601f19166020018201604052801561179e5781602001600182028036833780820191505090505b5090505b60008514611851576001826117b791906123e3565b9150600a856117c69190612579565b60306117d2919061235c565b60f81b81838151811061180e577f4e487b7100000000000000000000000000000000000000000000000000000000600052603260045260246000fd5b60200101907effffffffffffffffffffffffffffffffffffffffffffffffffffffffffffff1916908160001a905350600a8561184a91906123b2565b94506117a2565b8093505050505b919050565b600080823b905060008111915050919050565b82805461187c906124cd565b90600052602060002090601f01602090048101928261189e57600085556118e5565b82601f106118b757805160ff19168380011785556118e5565b828001600101855582156118e5579182015b828111156118e45782518255916020019190600101906118c9565b5b5090506118f291906118f6565b5090565b5b8082111561190f5760008160009055506001016118f7565b5090565b6000611926611921846122b7565b612292565b90508281526020810184848401111561193e57600080fd5b61194984828561248b565b509392505050565b600061196461195f846122e8565b612292565b90508281526020810184848401111561197c57600080fd5b61198784828561248b565b509392505050565b60008135905061199e81612af5565b92915050565b6000813590506119b381612b0c565b92915050565b6000813590506119c881612b23565b92915050565b6000815190506119dd81612b23565b92915050565b600082601f8301126119f457600080fd5b8135611a04848260208601611913565b91505092915050565b600082601f830112611a1e57600080fd5b8135611a2e848260208601611951565b91505092915050565b600081359050611a4681612b3a565b92915050565b600060208284031215611a5e57600080fd5b6000611a6c8482850161198f565b91505092915050565b60008060408385031215611a8857600080fd5b6000611a968582860161198f565b9250506020611aa78582860161198f565b9150509250929050565b600080600060608486031215611ac657600080fd5b6000611ad48682870161198f565b9350506020611ae58682870161198f565b9250506040611af686828701611a37565b9150509250925092565b60008060008060808587031215611b1657600080fd5b6000611b248782880161198f565b9450506020611b358782880161198f565b9350506040611b4687828801611a37565b925050606085013567ffffffffffffffff811115611b6357600080fd5b611b6f878288016119e3565b91505092959194509250565b60008060408385031215611b8e57600080fd5b6000611b9c8582860161198f565b9250506020611bad858286016119a4565b9150509250929050565b60008060408385031215611bca57600080fd5b6000611bd88582860161198f565b9250506020611be985828601611a37565b9150509250929050565b600060208284031215611c0557600080fd5b6000611c13848285016119b9565b91505092915050565b600060208284031215611c2e57600080fd5b6000611c3c848285016119ce565b91505092915050565b600060208284031215611c5757600080fd5b600082013567ffffffffffffffff811115611c7157600080fd5b611c7d84828501611a0d565b91505092915050565b600060208284031215611c9857600080fd5b6000611ca684828501611a37565b91505092915050565b611cb881612417565b82525050565b611cc781612429565b82525050565b6000611cd882612319565b611ce2818561232f565b9350611cf281856020860161249a565b611cfb81612666565b840191505092915050565b6000611d1182612324565b611d1b8185612340565b9350611d2b81856020860161249a565b611d3481612666565b840191505092915050565b6000611d4a82612324565b611d548185612351565b9350611d6481856020860161249a565b80840191505092915050565b6000611d7d603283612340565b9150611d8882612677565b604082019050919050565b6000611da0601c83612340565b9150611dab826126c6565b602082019050919050565b6000611dc3602483612340565b9150611dce826126ef565b604082019050919050565b6000611de6601983612340565b9150611df18261273e565b602082019050919050565b6000611e09602c83612340565b9150611e1482612767565b604082019050919050565b6000611e2c603883612340565b9150611e37826127b6565b604082019050919050565b6000611e4f602a83612340565b9150611e5a82612805565b604082019050919050565b6000611e72602983612340565b9150611e7d82612854565b604082019050919050565b6000611e95602e83612340565b9150611ea0826128a3565b604082019050919050565b6000611eb8602083612340565b9150611ec3826128f2565b602082019050919050565b6000611edb603183612340565b9150611ee68261291b565b604082019050919050565b6000611efe602c83612340565b9150611f098261296a565b604082019050919050565b6000611f21602983612340565b9150611f2c826129b9565b604082019050919050565b6000611f44602f83612340565b9150611f4f82612a08565b604082019050919050565b6000611f67602183612340565b9150611f7282612a57565b604082019050919050565b6000611f8a603183612340565b9150611f9582612aa6565b604082019050919050565b611fa981612481565b82525050565b6000611fbb8285611d3f565b9150611fc78284611d3f565b91508190509392505050565b6000602082019050611fe86000830184611caf565b92915050565b60006080820190506120036000830187611caf565b6120106020830186611caf565b61201d6040830185611fa0565b818103606083015261202f8184611ccd565b905095945050505050565b600060208201905061204f6000830184611cbe565b92915050565b6000602082019050818103600083015261206f8184611d06565b905092915050565b6000602082019050818103600083015261209081611d70565b9050919050565b600060208201905081810360008301526120b081611d93565b9050919050565b600060208201905081810360008301526120d081611db6565b9050919050565b600060208201905081810360008301526120f081611dd9565b9050919050565b6000602082019050818103600083015261211081611dfc565b9050919050565b6000602082019050818103600083015261213081611e1f565b9050919050565b6000602082019050818103600083015261215081611e42565b9050919050565b6000602082019050818103600083015261217081611e65565b9050919050565b6000602082019050818103600083015261219081611e88565b9050919050565b600060208201905081810360008301526121b081611eab565b9050919050565b600060208201905081810360008301526121d081611ece565b9050919050565b600060208201905081810360008301526121f081611ef1565b9050919050565b6000602082019050818103600083015261221081611f14565b9050919050565b6000602082019050818103600083015261223081611f37565b9050919050565b6000602082019050818103600083015261225081611f5a565b9050919050565b6000602082019050818103600083015261227081611f7d565b9050919050565b600060208201905061228c6000830184611fa0565b92915050565b600061229c6122ad565b90506122a882826124ff565b919050565b6000604051905090565b600067ffffffffffffffff8211156122d2576122d1612637565b5b6122db82612666565b9050602081019050919050565b600067ffffffffffffffff82111561230357612302612637565b5b61230c82612666565b9050602081019050919050565b600081519050919050565b600081519050919050565b600082825260208201905092915050565b600082825260208201905092915050565b600081905092915050565b600061236782612481565b915061237283612481565b9250827fffffffffffffffffffffffffffffffffffffffffffffffffffffffffffffffff038211156123a7576123a66125aa565b5b828201905092915050565b60006123bd82612481565b91506123c883612481565b9250826123d8576123d76125d9565b5b828204905092915050565b60006123ee82612481565b91506123f983612481565b92508282101561240c5761240b6125aa565b5b828203905092915050565b600061242282612461565b9050919050565b60008115159050919050565b60007fffffffff0000000000000000000000000000000000000000000000000000000082169050919050565b600073ffffffffffffffffffffffffffffffffffffffff82169050919050565b6000819050919050565b82818337600083830152505050565b60005b838110156124b857808201518184015260208101905061249d565b838111156124c7576000848401525b50505050565b600060028204905060018216806124e557607f821691505b602082108114156124f9576124f8612608565b5b50919050565b61250882612666565b810181811067ffffffffffffffff8211171561252757612526612637565b5b80604052505050565b600061253b82612481565b91507fffffffffffffffffffffffffffffffffffffffffffffffffffffffffffffffff82141561256e5761256d6125aa565b5b600182019050919050565b600061258482612481565b915061258f83612481565b92508261259f5761259e6125d9565b5b828206905092915050565b7f4e487b7100000000000000000000000000000000000000000000000000000000600052601160045260246000fd5b7f4e487b7100000000000000000000000000000000000000000000000000000000600052601260045260246000fd5b7f4e487b7100000000000000000000000000000000000000000000000000000000600052602260045260246000fd5b7f4e487b7100000000000000000000000000000000000000000000000000000000600052604160045260246000fd5b6000601f19601f8301169050919050565b7f4552433732313a207472616e7366657220746f206e6f6e20455243373231526560008201527f63656976657220696d706c656d656e7465720000000000000000000000000000602082015250565b7f4552433732313a20746f6b656e20616c7265616479206d696e74656400000000600082015250565b7f4552433732313a207472616e7366657220746f20746865207a65726f2061646460008201527f7265737300000000000000000000000000000000000000000000000000000000602082015250565b7f4552433732313a20617070726f766520746f2063616c6c657200000000000000600082015250565b7f4552433732313a206f70657261746f7220717565727920666f72206e6f6e657860008201527f697374656e7420746f6b656e0000000000000000000000000000000000000000602082015250565b7f4552433732313a20617070726f76652063616c6c6572206973206e6f74206f7760008201527f6e6572206e6f7220617070726f76656420666f7220616c6c0000000000000000602082015250565b7f4552433732313a2062616c616e636520717565727920666f7220746865207a6560008201527f726f206164647265737300000000000000000000000000000000000000000000602082015250565b7f4552433732313a206f776e657220717565727920666f72206e6f6e657869737460008201527f656e7420746f6b656e0000000000000000000000000000000000000000000000602082015250565b7f45524337323155524953746f726167653a2055524920736574206f66206e6f6e60008201527f6578697374656e7420746f6b656e000000000000000000000000000000000000602082015250565b7f4552433732313a206d696e7420746f20746865207a65726f2061646472657373600082015250565b7f45524337323155524953746f726167653a2055524920717565727920666f722060008201527f6e6f6e6578697374656e7420746f6b656e000000000000000000000000000000602082015250565b7f4552433732313a20617070726f76656420717565727920666f72206e6f6e657860008201527f697374656e7420746f6b656e0000000000000000000000000000000000000000602082015250565b7f4552433732313a207472616e73666572206f6620746f6b656e2074686174206960008201527f73206e6f74206f776e0000000000000000000000000000000000000000000000602082015250565b7f4552433732314d657461646174613a2055524920717565727920666f72206e6f60008201527f6e6578697374656e7420746f6b656e0000000000000000000000000000000000602082015250565b7f4552433732313a20617070726f76616c20746f2063757272656e74206f776e6560008201527f7200000000000000000000000000000000000000000000000000000000000000602082015250565b7f4552433732313a207472616e736665722063616c6c6572206973206e6f74206f60008201527f776e6572206e6f7220617070726f766564000000000000000000000000000000602082015250565b612afe81612417565b8114612b0957600080fd5b50565b612b1581612429565b8114612b2057600080fd5b50565b612b2c81612435565b8114612b3757600080fd5b50565b612b4381612481565b8114612b4e57600080fd5b5056fea264697066735822122013547383c997d0f38e7809b5661634faa7b7ec2edac71070dc8fc29058c9062f64736f6c63430008040033a26469706673582212208ec2e68c17650fe069d59cadabdfe0270de2b4dd91827cfe839545214402110b64736f6c63430008040033",
  "linkReferences": {},
  "deployedLinkReferences": {}
}