{
  "_format": "hh-sol-artifact-1",
  "contractName": "NFTCollectible",
  "sourceName": "contracts/NFTCollectible.sol",
  "abi": [
    {
      "inputs": [
        {
          "internalType": "address",
          "name": "marketplaceAddress",
          "type": "address"
        }
      ],
      "stateMutability": "nonpayable",
      "type": "constructor"
    },
    {
      "anonymous": false,
      "inputs": [
        {
          "indexed": true,
          "internalType": "address",
          "name": "owner",
          "type": "address"
        },
        {
          "indexed": true,
          "internalType": "address",
          "name": "approved",
          "type": "address"
        },
        {
          "indexed": true,
          "internalType": "uint256",
          "name": "tokenId",
          "type": "uint256"
        }
      ],
      "name": "Approval",
      "type": "event"
    },
    {
      "anonymous": false,
      "inputs": [
        {
          "indexed": true,
          "internalType": "address",
          "name": "owner",
          "type": "address"
        },
        {
          "indexed": true,
          "internalType": "address",
          "name": "operator",
          "type": "address"
        },
        {
          "indexed": false,
          "internalType": "bool",
          "name": "approved",
          "type": "bool"
        }
      ],
      "name": "ApprovalForAll",
      "type": "event"
    },
    {
      "anonymous": false,
      "inputs": [
        {
          "indexed": true,
          "internalType": "address",
          "name": "previousOwner",
          "type": "address"
        },
        {
          "indexed": true,
          "internalType": "address",
          "name": "newOwner",
          "type": "address"
        }
      ],
      "name": "OwnershipTransferred",
      "type": "event"
    },
    {
      "anonymous": false,
      "inputs": [
        {
          "indexed": true,
          "internalType": "address",
          "name": "from",
          "type": "address"
        },
        {
          "indexed": true,
          "internalType": "address",
          "name": "to",
          "type": "address"
        },
        {
          "indexed": true,
          "internalType": "uint256",
          "name": "tokenId",
          "type": "uint256"
        }
      ],
      "name": "Transfer",
      "type": "event"
    },
    {
      "inputs": [
        {
          "internalType": "address",
          "name": "to",
          "type": "address"
        },
        {
          "internalType": "uint256",
          "name": "tokenId",
          "type": "uint256"
        }
      ],
      "name": "approve",
      "outputs": [],
      "stateMutability": "nonpayable",
      "type": "function"
    },
    {
      "inputs": [
        {
          "internalType": "address",
          "name": "owner",
          "type": "address"
        }
      ],
      "name": "balanceOf",
      "outputs": [
        {
          "internalType": "uint256",
          "name": "",
          "type": "uint256"
        }
      ],
      "stateMutability": "view",
      "type": "function"
    },
    {
      "inputs": [
        {
          "internalType": "uint256",
          "name": "_tokenId",
          "type": "uint256"
        }
      ],
      "name": "burnToken",
      "outputs": [],
      "stateMutability": "nonpayable",
      "type": "function"
    },
    {
      "inputs": [
        {
          "internalType": "address",
          "name": "_newAdress",
          "type": "address"
        }
      ],
      "name": "changeMarketContract",
      "outputs": [],
      "stateMutability": "nonpayable",
      "type": "function"
    },
    {
      "inputs": [
        {
          "internalType": "string",
          "name": "_tokenURI",
          "type": "string"
        }
      ],
      "name": "createToken",
      "outputs": [
        {
          "internalType": "uint256",
          "name": "",
          "type": "uint256"
        }
      ],
      "stateMutability": "nonpayable",
      "type": "function"
    },
    {
      "inputs": [
        {
          "internalType": "uint256",
          "name": "tokenId",
          "type": "uint256"
        }
      ],
      "name": "getApproved",
      "outputs": [
        {
          "internalType": "address",
          "name": "",
          "type": "address"
        }
      ],
      "stateMutability": "view",
      "type": "function"
    },
    {
      "inputs": [
        {
          "internalType": "address",
          "name": "_owner",
          "type": "address"
        }
      ],
      "name": "getTokenIds",
      "outputs": [
        {
          "internalType": "uint256[]",
          "name": "",
          "type": "uint256[]"
        }
      ],
      "stateMutability": "view",
      "type": "function"
    },
    {
      "inputs": [
        {
          "internalType": "address",
          "name": "owner",
          "type": "address"
        },
        {
          "internalType": "address",
          "name": "operator",
          "type": "address"
        }
      ],
      "name": "isApprovedForAll",
      "outputs": [
        {
          "internalType": "bool",
          "name": "",
          "type": "bool"
        }
      ],
      "stateMutability": "view",
      "type": "function"
    },
    {
      "inputs": [],
      "name": "name",
      "outputs": [
        {
          "internalType": "string",
          "name": "",
          "type": "string"
        }
      ],
      "stateMutability": "view",
      "type": "function"
    },
    {
      "inputs": [],
      "name": "owner",
      "outputs": [
        {
          "internalType": "address",
          "name": "",
          "type": "address"
        }
      ],
      "stateMutability": "view",
      "type": "function"
    },
    {
      "inputs": [
        {
          "internalType": "uint256",
          "name": "tokenId",
          "type": "uint256"
        }
      ],
      "name": "ownerOf",
      "outputs": [
        {
          "internalType": "address",
          "name": "",
          "type": "address"
        }
      ],
      "stateMutability": "view",
      "type": "function"
    },
    {
      "inputs": [],
      "name": "renounceOwnership",
      "outputs": [],
      "stateMutability": "nonpayable",
      "type": "function"
    },
    {
      "inputs": [
        {
          "internalType": "address",
          "name": "from",
          "type": "address"
        },
        {
          "internalType": "address",
          "name": "to",
          "type": "address"
        },
        {
          "internalType": "uint256",
          "name": "tokenId",
          "type": "uint256"
        }
      ],
      "name": "safeTransferFrom",
      "outputs": [],
      "stateMutability": "nonpayable",
      "type": "function"
    },
    {
      "inputs": [
        {
          "internalType": "address",
          "name": "from",
          "type": "address"
        },
        {
          "internalType": "address",
          "name": "to",
          "type": "address"
        },
        {
          "internalType": "uint256",
          "name": "tokenId",
          "type": "uint256"
        },
        {
          "internalType": "bytes",
          "name": "_data",
          "type": "bytes"
        }
      ],
      "name": "safeTransferFrom",
      "outputs": [],
      "stateMutability": "nonpayable",
      "type": "function"
    },
    {
      "inputs": [
        {
          "internalType": "address",
          "name": "operator",
          "type": "address"
        },
        {
          "internalType": "bool",
          "name": "approved",
          "type": "bool"
        }
      ],
      "name": "setApprovalForAll",
      "outputs": [],
      "stateMutability": "nonpayable",
      "type": "function"
    },
    {
      "inputs": [
        {
          "internalType": "bytes4",
          "name": "interfaceId",
          "type": "bytes4"
        }
      ],
      "name": "supportsInterface",
      "outputs": [
        {
          "internalType": "bool",
          "name": "",
          "type": "bool"
        }
      ],
      "stateMutability": "view",
      "type": "function"
    },
    {
      "inputs": [],
      "name": "symbol",
      "outputs": [
        {
          "internalType": "string",
          "name": "",
          "type": "string"
        }
      ],
      "stateMutability": "view",
      "type": "function"
    },
    {
      "inputs": [
        {
          "internalType": "uint256",
          "name": "index",
          "type": "uint256"
        }
      ],
      "name": "tokenByIndex",
      "outputs": [
        {
          "internalType": "uint256",
          "name": "",
          "type": "uint256"
        }
      ],
      "stateMutability": "view",
      "type": "function"
    },
    {
      "inputs": [
        {
          "internalType": "address",
          "name": "owner",
          "type": "address"
        },
        {
          "internalType": "uint256",
          "name": "index",
          "type": "uint256"
        }
      ],
      "name": "tokenOfOwnerByIndex",
      "outputs": [
        {
          "internalType": "uint256",
          "name": "",
          "type": "uint256"
        }
      ],
      "stateMutability": "view",
      "type": "function"
    },
    {
      "inputs": [
        {
          "internalType": "uint256",
          "name": "tokenId",
          "type": "uint256"
        }
      ],
      "name": "tokenURI",
      "outputs": [
        {
          "internalType": "string",
          "name": "",
          "type": "string"
        }
      ],
      "stateMutability": "view",
      "type": "function"
    },
    {
      "inputs": [],
      "name": "totalSupply",
      "outputs": [
        {
          "internalType": "uint256",
          "name": "",
          "type": "uint256"
        }
      ],
      "stateMutability": "view",
      "type": "function"
    },
    {
      "inputs": [
        {
          "internalType": "address",
          "name": "from",
          "type": "address"
        },
        {
          "internalType": "address",
          "name": "to",
          "type": "address"
        },
        {
          "internalType": "uint256",
          "name": "tokenId",
          "type": "uint256"
        }
      ],
      "name": "transferFrom",
      "outputs": [],
      "stateMutability": "nonpayable",
      "type": "function"
    },
    {
      "inputs": [
        {
          "internalType": "address",
          "name": "newOwner",
          "type": "address"
        }
      ],
      "name": "transferOwnership",
      "outputs": [],
      "stateMutability": "nonpayable",
      "type": "function"
    }
  ],
  "bytecode": "0x60806040523480156200001157600080fd5b50604051620041c2380380620041c28339818101604052810190620000379190620002d4565b6040518060400160405280601681526020017f45746865722d6e69747920436f6c6c65637469626c65000000000000000000008152506040518060400160405280600481526020017f45544843000000000000000000000000000000000000000000000000000000008152508160009080519060200190620000bb9291906200020d565b508060019080519060200190620000d49291906200020d565b505050620000f7620000eb6200013f60201b60201c565b6200014760201b60201c565b80600c60006101000a81548173ffffffffffffffffffffffffffffffffffffffff021916908373ffffffffffffffffffffffffffffffffffffffff16021790555050620003b3565b600033905090565b6000600a60009054906101000a900473ffffffffffffffffffffffffffffffffffffffff16905081600a60006101000a81548173ffffffffffffffffffffffffffffffffffffffff021916908373ffffffffffffffffffffffffffffffffffffffff1602179055508173ffffffffffffffffffffffffffffffffffffffff168173ffffffffffffffffffffffffffffffffffffffff167f8be0079c531659141344cd1fd0a4f28419497f9722a3daafe3b4186f6b6457e060405160405180910390a35050565b8280546200021b9062000334565b90600052602060002090601f0160209004810192826200023f57600085556200028b565b82601f106200025a57805160ff19168380011785556200028b565b828001600101855582156200028b579182015b828111156200028a5782518255916020019190600101906200026d565b5b5090506200029a91906200029e565b5090565b5b80821115620002b95760008160009055506001016200029f565b5090565b600081519050620002ce8162000399565b92915050565b600060208284031215620002e757600080fd5b6000620002f784828501620002bd565b91505092915050565b60006200030d8262000314565b9050919050565b600073ffffffffffffffffffffffffffffffffffffffff82169050919050565b600060028204905060018216806200034d57607f821691505b602082108114156200036457620003636200036a565b5b50919050565b7f4e487b7100000000000000000000000000000000000000000000000000000000600052602260045260246000fd5b620003a48162000300565b8114620003b057600080fd5b50565b613dff80620003c36000396000f3fe608060405234801561001057600080fd5b506004361061014d5760003560e01c806370a08231116100c3578063a22cb4651161007c578063a22cb465146103b0578063b88d4fde146103cc578063c87b56dd146103e8578063d004b03614610418578063e985e9c514610448578063f2fde38b146104785761014d565b806370a0823114610302578063715018a6146103325780637b47ec1a1461033c5780638da5cb5b14610358578063944f28b81461037657806395d89b41146103925761014d565b806323b872dd1161011557806323b872dd1461020a5780632f745c591461022657806342842e0e1461025657806345576f94146102725780634f6ccce7146102a25780636352211e146102d25761014d565b806301ffc9a71461015257806306fdde0314610182578063081812fc146101a0578063095ea7b3146101d057806318160ddd146101ec575b600080fd5b61016c60048036038101906101679190612a91565b610494565b6040516101799190613051565b60405180910390f35b61018a61050e565b604051610197919061306c565b60405180910390f35b6101ba60048036038101906101b59190612b24565b6105a0565b6040516101c79190612fc8565b60405180910390f35b6101ea60048036038101906101e59190612a55565b610625565b005b6101f461073d565b604051610201919061334e565b60405180910390f35b610224600480360381019061021f919061294f565b61074a565b005b610240600480360381019061023b9190612a55565b6107aa565b60405161024d919061334e565b60405180910390f35b610270600480360381019061026b919061294f565b61084f565b005b61028c60048036038101906102879190612ae3565b61086f565b604051610299919061334e565b60405180910390f35b6102bc60048036038101906102b79190612b24565b6108d3565b6040516102c9919061334e565b60405180910390f35b6102ec60048036038101906102e79190612b24565b61096a565b6040516102f99190612fc8565b60405180910390f35b61031c600480360381019061031791906128ea565b610a1c565b604051610329919061334e565b60405180910390f35b61033a610ad4565b005b61035660048036038101906103519190612b24565b610b5c565b005b610360610bde565b60405161036d9190612fc8565b60405180910390f35b610390600480360381019061038b91906128ea565b610c08565b005b61039a610d38565b6040516103a7919061306c565b60405180910390f35b6103ca60048036038101906103c59190612a19565b610dca565b005b6103e660048036038101906103e1919061299e565b610de0565b005b61040260048036038101906103fd9190612b24565b610e42565b60405161040f919061306c565b60405180910390f35b610432600480360381019061042d91906128ea565b610f94565b60405161043f919061302f565b60405180910390f35b610462600480360381019061045d9190612913565b611090565b60405161046f9190613051565b60405180910390f35b610492600480360381019061048d91906128ea565b611124565b005b60007f780e9d63000000000000000000000000000000000000000000000000000000007bffffffffffffffffffffffffffffffffffffffffffffffffffffffff1916827bffffffffffffffffffffffffffffffffffffffffffffffffffffffff1916148061050757506105068261121c565b5b9050919050565b60606000805461051d906135dd565b80601f0160208091040260200160405190810160405280929190818152602001828054610549906135dd565b80156105965780601f1061056b57610100808354040283529160200191610596565b820191906000526020600020905b81548152906001019060200180831161057957829003601f168201915b5050505050905090565b60006105ab826112fe565b6105ea576040517f08c379a00000000000000000000000000000000000000000000000000000000081526004016105e19061322e565b60405180910390fd5b6004600083815260200190815260200160002060009054906101000a900473ffffffffffffffffffffffffffffffffffffffff169050919050565b60006106308261096a565b90508073ffffffffffffffffffffffffffffffffffffffff168373ffffffffffffffffffffffffffffffffffffffff1614156106a1576040517f08c379a0000000000000000000000000000000000000000000000000000000008152600401610698906132ce565b60405180910390fd5b8073ffffffffffffffffffffffffffffffffffffffff166106c061136a565b73ffffffffffffffffffffffffffffffffffffffff1614806106ef57506106ee816106e961136a565b611090565b5b61072e576040517f08c379a00000000000000000000000000000000000000000000000000000000081526004016107259061316e565b60405180910390fd5b6107388383611372565b505050565b6000600880549050905090565b61075b61075561136a565b8261142b565b61079a576040517f08c379a00000000000000000000000000000000000000000000000000000000081526004016107919061330e565b60405180910390fd5b6107a5838383611509565b505050565b60006107b583610a1c565b82106107f6576040517f08c379a00000000000000000000000000000000000000000000000000000000081526004016107ed9061308e565b60405180910390fd5b600660008473ffffffffffffffffffffffffffffffffffffffff1673ffffffffffffffffffffffffffffffffffffffff168152602001908152602001600020600083815260200190815260200160002054905092915050565b61086a83838360405180602001604052806000815250610de0565b505050565b600061087b600b611765565b6000610887600b61177b565b90506108933382611789565b61089d8184611957565b6108ca600c60009054906101000a900473ffffffffffffffffffffffffffffffffffffffff166001610dca565b80915050919050565b60006108dd61073d565b821061091e576040517f08c379a00000000000000000000000000000000000000000000000000000000081526004016109159061332e565b60405180910390fd5b60088281548110610958577f4e487b7100000000000000000000000000000000000000000000000000000000600052603260045260246000fd5b90600052602060002001549050919050565b6000806002600084815260200190815260200160002060009054906101000a900473ffffffffffffffffffffffffffffffffffffffff169050600073ffffffffffffffffffffffffffffffffffffffff168173ffffffffffffffffffffffffffffffffffffffff161415610a13576040517f08c379a0000000000000000000000000000000000000000000000000000000008152600401610a0a906131ae565b60405180910390fd5b80915050919050565b60008073ffffffffffffffffffffffffffffffffffffffff168273ffffffffffffffffffffffffffffffffffffffff161415610a8d576040517f08c379a0000000000000000000000000000000000000000000000000000000008152600401610a849061318e565b60405180910390fd5b600360008373ffffffffffffffffffffffffffffffffffffffff1673ffffffffffffffffffffffffffffffffffffffff168152602001908152602001600020549050919050565b610adc61136a565b73ffffffffffffffffffffffffffffffffffffffff16610afa610bde565b73ffffffffffffffffffffffffffffffffffffffff1614610b50576040517f08c379a0000000000000000000000000000000000000000000000000000000008152600401610b479061324e565b60405180910390fd5b610b5a60006119cb565b565b610b658161096a565b73ffffffffffffffffffffffffffffffffffffffff163373ffffffffffffffffffffffffffffffffffffffff1614610bd2576040517f08c379a0000000000000000000000000000000000000000000000000000000008152600401610bc9906132ee565b60405180910390fd5b610bdb81611a91565b50565b6000600a60009054906101000a900473ffffffffffffffffffffffffffffffffffffffff16905090565b610c1061136a565b73ffffffffffffffffffffffffffffffffffffffff16610c2e610bde565b73ffffffffffffffffffffffffffffffffffffffff1614610c84576040517f08c379a0000000000000000000000000000000000000000000000000000000008152600401610c7b9061324e565b60405180910390fd5b600073ffffffffffffffffffffffffffffffffffffffff168173ffffffffffffffffffffffffffffffffffffffff161415610cf4576040517f08c379a0000000000000000000000000000000000000000000000000000000008152600401610ceb9061328e565b60405180910390fd5b80600c60006101000a81548173ffffffffffffffffffffffffffffffffffffffff021916908373ffffffffffffffffffffffffffffffffffffffff16021790555050565b606060018054610d47906135dd565b80601f0160208091040260200160405190810160405280929190818152602001828054610d73906135dd565b8015610dc05780601f10610d9557610100808354040283529160200191610dc0565b820191906000526020600020905b815481529060010190602001808311610da357829003601f168201915b5050505050905090565b610ddc610dd561136a565b8383611ae4565b5050565b610df1610deb61136a565b8361142b565b610e30576040517f08c379a0000000000000000000000000000000000000000000000000000000008152600401610e279061330e565b60405180910390fd5b610e3c84848484611c51565b50505050565b6060610e4d826112fe565b610e8c576040517f08c379a0000000000000000000000000000000000000000000000000000000008152600401610e839061320e565b60405180910390fd5b6000600d60008481526020019081526020016000208054610eac906135dd565b80601f0160208091040260200160405190810160405280929190818152602001828054610ed8906135dd565b8015610f255780601f10610efa57610100808354040283529160200191610f25565b820191906000526020600020905b815481529060010190602001808311610f0857829003601f168201915b505050505090506000610f36611cad565b9050600081511415610f4c578192505050610f8f565b600082511115610f81578082604051602001610f69929190612fa4565b60405160208183030381529060405292505050610f8f565b610f8a84611cc4565b925050505b919050565b60606000610fa183610a1c565b67ffffffffffffffff811115610fe0577f4e487b7100000000000000000000000000000000000000000000000000000000600052604160045260246000fd5b60405190808252806020026020018201604052801561100e5781602001602082028036833780820191505090505b50905060005b61101d84610a1c565b8110156110865761102e84826107aa565b828281518110611067577f4e487b7100000000000000000000000000000000000000000000000000000000600052603260045260246000fd5b602002602001018181525050808061107e90613640565b915050611014565b8192505050919050565b6000600560008473ffffffffffffffffffffffffffffffffffffffff1673ffffffffffffffffffffffffffffffffffffffff16815260200190815260200160002060008373ffffffffffffffffffffffffffffffffffffffff1673ffffffffffffffffffffffffffffffffffffffff16815260200190815260200160002060009054906101000a900460ff16905092915050565b61112c61136a565b73ffffffffffffffffffffffffffffffffffffffff1661114a610bde565b73ffffffffffffffffffffffffffffffffffffffff16146111a0576040517f08c379a00000000000000000000000000000000000000000000000000000000081526004016111979061324e565b60405180910390fd5b600073ffffffffffffffffffffffffffffffffffffffff168173ffffffffffffffffffffffffffffffffffffffff161415611210576040517f08c379a0000000000000000000000000000000000000000000000000000000008152600401611207906130ce565b60405180910390fd5b611219816119cb565b50565b60007f80ac58cd000000000000000000000000000000000000000000000000000000007bffffffffffffffffffffffffffffffffffffffffffffffffffffffff1916827bffffffffffffffffffffffffffffffffffffffffffffffffffffffff191614806112e757507f5b5e139f000000000000000000000000000000000000000000000000000000007bffffffffffffffffffffffffffffffffffffffffffffffffffffffff1916827bffffffffffffffffffffffffffffffffffffffffffffffffffffffff1916145b806112f757506112f682611d6b565b5b9050919050565b60008073ffffffffffffffffffffffffffffffffffffffff166002600084815260200190815260200160002060009054906101000a900473ffffffffffffffffffffffffffffffffffffffff1673ffffffffffffffffffffffffffffffffffffffff1614159050919050565b600033905090565b816004600083815260200190815260200160002060006101000a81548173ffffffffffffffffffffffffffffffffffffffff021916908373ffffffffffffffffffffffffffffffffffffffff160217905550808273ffffffffffffffffffffffffffffffffffffffff166113e58361096a565b73ffffffffffffffffffffffffffffffffffffffff167f8c5be1e5ebec7d5bd14f71427d1e84f3dd0314c0f7b2291e5b200ac8c7c3b92560405160405180910390a45050565b6000611436826112fe565b611475576040517f08c379a000000000000000000000000000000000000000000000000000000000815260040161146c9061314e565b60405180910390fd5b60006114808361096a565b90508073ffffffffffffffffffffffffffffffffffffffff168473ffffffffffffffffffffffffffffffffffffffff1614806114ef57508373ffffffffffffffffffffffffffffffffffffffff166114d7846105a0565b73ffffffffffffffffffffffffffffffffffffffff16145b8061150057506114ff8185611090565b5b91505092915050565b8273ffffffffffffffffffffffffffffffffffffffff166115298261096a565b73ffffffffffffffffffffffffffffffffffffffff161461157f576040517f08c379a00000000000000000000000000000000000000000000000000000000081526004016115769061326e565b60405180910390fd5b600073ffffffffffffffffffffffffffffffffffffffff168273ffffffffffffffffffffffffffffffffffffffff1614156115ef576040517f08c379a00000000000000000000000000000000000000000000000000000000081526004016115e69061310e565b60405180910390fd5b6115fa838383611dd5565b611605600082611372565b6001600360008573ffffffffffffffffffffffffffffffffffffffff1673ffffffffffffffffffffffffffffffffffffffff168152602001908152602001600020600082825461165591906134f3565b925050819055506001600360008473ffffffffffffffffffffffffffffffffffffffff1673ffffffffffffffffffffffffffffffffffffffff16815260200190815260200160002060008282546116ac919061346c565b92505081905550816002600083815260200190815260200160002060006101000a81548173ffffffffffffffffffffffffffffffffffffffff021916908373ffffffffffffffffffffffffffffffffffffffff160217905550808273ffffffffffffffffffffffffffffffffffffffff168473ffffffffffffffffffffffffffffffffffffffff167fddf252ad1be2c89b69c2b068fc378daa952ba7f163c4a11628f55a4df523b3ef60405160405180910390a4505050565b6001816000016000828254019250508190555050565b600081600001549050919050565b600073ffffffffffffffffffffffffffffffffffffffff168273ffffffffffffffffffffffffffffffffffffffff1614156117f9576040517f08c379a00000000000000000000000000000000000000000000000000000000081526004016117f0906131ee565b60405180910390fd5b611802816112fe565b15611842576040517f08c379a0000000000000000000000000000000000000000000000000000000008152600401611839906130ee565b60405180910390fd5b61184e60008383611dd5565b6001600360008473ffffffffffffffffffffffffffffffffffffffff1673ffffffffffffffffffffffffffffffffffffffff168152602001908152602001600020600082825461189e919061346c565b92505081905550816002600083815260200190815260200160002060006101000a81548173ffffffffffffffffffffffffffffffffffffffff021916908373ffffffffffffffffffffffffffffffffffffffff160217905550808273ffffffffffffffffffffffffffffffffffffffff16600073ffffffffffffffffffffffffffffffffffffffff167fddf252ad1be2c89b69c2b068fc378daa952ba7f163c4a11628f55a4df523b3ef60405160405180910390a45050565b611960826112fe565b61199f576040517f08c379a0000000000000000000000000000000000000000000000000000000008152600401611996906131ce565b60405180910390fd5b80600d600084815260200190815260200160002090805190602001906119c69291906126ce565b505050565b6000600a60009054906101000a900473ffffffffffffffffffffffffffffffffffffffff16905081600a60006101000a81548173ffffffffffffffffffffffffffffffffffffffff021916908373ffffffffffffffffffffffffffffffffffffffff1602179055508173ffffffffffffffffffffffffffffffffffffffff168173ffffffffffffffffffffffffffffffffffffffff167f8be0079c531659141344cd1fd0a4f28419497f9722a3daafe3b4186f6b6457e060405160405180910390a35050565b611a9a81611ee9565b6000600d60008381526020019081526020016000208054611aba906135dd565b905014611ae157600d60008281526020019081526020016000206000611ae09190612754565b5b50565b8173ffffffffffffffffffffffffffffffffffffffff168373ffffffffffffffffffffffffffffffffffffffff161415611b53576040517f08c379a0000000000000000000000000000000000000000000000000000000008152600401611b4a9061312e565b60405180910390fd5b80600560008573ffffffffffffffffffffffffffffffffffffffff1673ffffffffffffffffffffffffffffffffffffffff16815260200190815260200160002060008473ffffffffffffffffffffffffffffffffffffffff1673ffffffffffffffffffffffffffffffffffffffff16815260200190815260200160002060006101000a81548160ff0219169083151502179055508173ffffffffffffffffffffffffffffffffffffffff168373ffffffffffffffffffffffffffffffffffffffff167f17307eab39ab6107e8899845ad3d59bd9653f200f220920489ca2b5937696c3183604051611c449190613051565b60405180910390a3505050565b611c5c848484611509565b611c6884848484611ffa565b611ca7576040517f08c379a0000000000000000000000000000000000000000000000000000000008152600401611c9e906130ae565b60405180910390fd5b50505050565b606060405180602001604052806000815250905090565b6060611ccf826112fe565b611d0e576040517f08c379a0000000000000000000000000000000000000000000000000000000008152600401611d05906132ae565b60405180910390fd5b6000611d18611cad565b90506000815111611d385760405180602001604052806000815250611d63565b80611d4284612191565b604051602001611d53929190612fa4565b6040516020818303038152906040525b915050919050565b60007f01ffc9a7000000000000000000000000000000000000000000000000000000007bffffffffffffffffffffffffffffffffffffffffffffffffffffffff1916827bffffffffffffffffffffffffffffffffffffffffffffffffffffffff1916149050919050565b611de083838361233e565b600073ffffffffffffffffffffffffffffffffffffffff168373ffffffffffffffffffffffffffffffffffffffff161415611e2357611e1e81612343565b611e62565b8173ffffffffffffffffffffffffffffffffffffffff168373ffffffffffffffffffffffffffffffffffffffff1614611e6157611e60838261238c565b5b5b600073ffffffffffffffffffffffffffffffffffffffff168273ffffffffffffffffffffffffffffffffffffffff161415611ea557611ea0816124f9565b611ee4565b8273ffffffffffffffffffffffffffffffffffffffff168273ffffffffffffffffffffffffffffffffffffffff1614611ee357611ee2828261263c565b5b5b505050565b6000611ef48261096a565b9050611f0281600084611dd5565b611f0d600083611372565b6001600360008373ffffffffffffffffffffffffffffffffffffffff1673ffffffffffffffffffffffffffffffffffffffff1681526020019081526020016000206000828254611f5d91906134f3565b925050819055506002600083815260200190815260200160002060006101000a81549073ffffffffffffffffffffffffffffffffffffffff021916905581600073ffffffffffffffffffffffffffffffffffffffff168273ffffffffffffffffffffffffffffffffffffffff167fddf252ad1be2c89b69c2b068fc378daa952ba7f163c4a11628f55a4df523b3ef60405160405180910390a45050565b600061201b8473ffffffffffffffffffffffffffffffffffffffff166126bb565b15612184578373ffffffffffffffffffffffffffffffffffffffff1663150b7a0261204461136a565b8786866040518563ffffffff1660e01b81526004016120669493929190612fe3565b602060405180830381600087803b15801561208057600080fd5b505af19250505080156120b157506040513d601f19601f820116820180604052508101906120ae9190612aba565b60015b612134573d80600081146120e1576040519150601f19603f3d011682016040523d82523d6000602084013e6120e6565b606091505b5060008151141561212c576040517f08c379a0000000000000000000000000000000000000000000000000000000008152600401612123906130ae565b60405180910390fd5b805181602001fd5b63150b7a0260e01b7bffffffffffffffffffffffffffffffffffffffffffffffffffffffff1916817bffffffffffffffffffffffffffffffffffffffffffffffffffffffff191614915050612189565b600190505b949350505050565b606060008214156121d9576040518060400160405280600181526020017f30000000000000000000000000000000000000000000000000000000000000008152509050612339565b600082905060005b6000821461220b5780806121f490613640565b915050600a8261220491906134c2565b91506121e1565b60008167ffffffffffffffff81111561224d577f4e487b7100000000000000000000000000000000000000000000000000000000600052604160045260246000fd5b6040519080825280601f01601f19166020018201604052801561227f5781602001600182028036833780820191505090505b5090505b600085146123325760018261229891906134f3565b9150600a856122a79190613689565b60306122b3919061346c565b60f81b8183815181106122ef577f4e487b7100000000000000000000000000000000000000000000000000000000600052603260045260246000fd5b60200101907effffffffffffffffffffffffffffffffffffffffffffffffffffffffffffff1916908160001a905350600a8561232b91906134c2565b9450612283565b8093505050505b919050565b505050565b6008805490506009600083815260200190815260200160002081905550600881908060018154018082558091505060019003906000526020600020016000909190919091505550565b6000600161239984610a1c565b6123a391906134f3565b9050600060076000848152602001908152602001600020549050818114612488576000600660008673ffffffffffffffffffffffffffffffffffffffff1673ffffffffffffffffffffffffffffffffffffffff168152602001908152602001600020600084815260200190815260200160002054905080600660008773ffffffffffffffffffffffffffffffffffffffff1673ffffffffffffffffffffffffffffffffffffffff168152602001908152602001600020600084815260200190815260200160002081905550816007600083815260200190815260200160002081905550505b6007600084815260200190815260200160002060009055600660008573ffffffffffffffffffffffffffffffffffffffff1673ffffffffffffffffffffffffffffffffffffffff16815260200190815260200160002060008381526020019081526020016000206000905550505050565b6000600160088054905061250d91906134f3565b9050600060096000848152602001908152602001600020549050600060088381548110612563577f4e487b7100000000000000000000000000000000000000000000000000000000600052603260045260246000fd5b9060005260206000200154905080600883815481106125ab577f4e487b7100000000000000000000000000000000000000000000000000000000600052603260045260246000fd5b906000526020600020018190555081600960008381526020019081526020016000208190555060096000858152602001908152602001600020600090556008805480612620577f4e487b7100000000000000000000000000000000000000000000000000000000600052603160045260246000fd5b6001900381819060005260206000200160009055905550505050565b600061264783610a1c565b905081600660008573ffffffffffffffffffffffffffffffffffffffff1673ffffffffffffffffffffffffffffffffffffffff168152602001908152602001600020600083815260200190815260200160002081905550806007600084815260200190815260200160002081905550505050565b600080823b905060008111915050919050565b8280546126da906135dd565b90600052602060002090601f0160209004810192826126fc5760008555612743565b82601f1061271557805160ff1916838001178555612743565b82800160010185558215612743579182015b82811115612742578251825591602001919060010190612727565b5b5090506127509190612794565b5090565b508054612760906135dd565b6000825580601f106127725750612791565b601f0160209004906000526020600020908101906127909190612794565b5b50565b5b808211156127ad576000816000905550600101612795565b5090565b60006127c46127bf8461338e565b613369565b9050828152602081018484840111156127dc57600080fd5b6127e784828561359b565b509392505050565b60006128026127fd846133bf565b613369565b90508281526020810184848401111561281a57600080fd5b61282584828561359b565b509392505050565b60008135905061283c81613d6d565b92915050565b60008135905061285181613d84565b92915050565b60008135905061286681613d9b565b92915050565b60008151905061287b81613d9b565b92915050565b600082601f83011261289257600080fd5b81356128a28482602086016127b1565b91505092915050565b600082601f8301126128bc57600080fd5b81356128cc8482602086016127ef565b91505092915050565b6000813590506128e481613db2565b92915050565b6000602082840312156128fc57600080fd5b600061290a8482850161282d565b91505092915050565b6000806040838503121561292657600080fd5b60006129348582860161282d565b92505060206129458582860161282d565b9150509250929050565b60008060006060848603121561296457600080fd5b60006129728682870161282d565b93505060206129838682870161282d565b9250506040612994868287016128d5565b9150509250925092565b600080600080608085870312156129b457600080fd5b60006129c28782880161282d565b94505060206129d38782880161282d565b93505060406129e4878288016128d5565b925050606085013567ffffffffffffffff811115612a0157600080fd5b612a0d87828801612881565b91505092959194509250565b60008060408385031215612a2c57600080fd5b6000612a3a8582860161282d565b9250506020612a4b85828601612842565b9150509250929050565b60008060408385031215612a6857600080fd5b6000612a768582860161282d565b9250506020612a87858286016128d5565b9150509250929050565b600060208284031215612aa357600080fd5b6000612ab184828501612857565b91505092915050565b600060208284031215612acc57600080fd5b6000612ada8482850161286c565b91505092915050565b600060208284031215612af557600080fd5b600082013567ffffffffffffffff811115612b0f57600080fd5b612b1b848285016128ab565b91505092915050565b600060208284031215612b3657600080fd5b6000612b44848285016128d5565b91505092915050565b6000612b598383612f86565b60208301905092915050565b612b6e81613527565b82525050565b6000612b7f82613400565b612b89818561342e565b9350612b94836133f0565b8060005b83811015612bc5578151612bac8882612b4d565b9750612bb783613421565b925050600181019050612b98565b5085935050505092915050565b612bdb81613539565b82525050565b6000612bec8261340b565b612bf6818561343f565b9350612c068185602086016135aa565b612c0f81613776565b840191505092915050565b6000612c2582613416565b612c2f8185613450565b9350612c3f8185602086016135aa565b612c4881613776565b840191505092915050565b6000612c5e82613416565b612c688185613461565b9350612c788185602086016135aa565b80840191505092915050565b6000612c91602b83613450565b9150612c9c82613787565b604082019050919050565b6000612cb4603283613450565b9150612cbf826137d6565b604082019050919050565b6000612cd7602683613450565b9150612ce282613825565b604082019050919050565b6000612cfa601c83613450565b9150612d0582613874565b602082019050919050565b6000612d1d602483613450565b9150612d288261389d565b604082019050919050565b6000612d40601983613450565b9150612d4b826138ec565b602082019050919050565b6000612d63602c83613450565b9150612d6e82613915565b604082019050919050565b6000612d86603883613450565b9150612d9182613964565b604082019050919050565b6000612da9602a83613450565b9150612db4826139b3565b604082019050919050565b6000612dcc602983613450565b9150612dd782613a02565b604082019050919050565b6000612def602e83613450565b9150612dfa82613a51565b604082019050919050565b6000612e12602083613450565b9150612e1d82613aa0565b602082019050919050565b6000612e35603183613450565b9150612e4082613ac9565b604082019050919050565b6000612e58602c83613450565b9150612e6382613b18565b604082019050919050565b6000612e7b602083613450565b9150612e8682613b67565b602082019050919050565b6000612e9e602983613450565b9150612ea982613b90565b604082019050919050565b6000612ec1601f83613450565b9150612ecc82613bdf565b602082019050919050565b6000612ee4602f83613450565b9150612eef82613c08565b604082019050919050565b6000612f07602183613450565b9150612f1282613c57565b604082019050919050565b6000612f2a602083613450565b9150612f3582613ca6565b602082019050919050565b6000612f4d603183613450565b9150612f5882613ccf565b604082019050919050565b6000612f70602c83613450565b9150612f7b82613d1e565b604082019050919050565b612f8f81613591565b82525050565b612f9e81613591565b82525050565b6000612fb08285612c53565b9150612fbc8284612c53565b91508190509392505050565b6000602082019050612fdd6000830184612b65565b92915050565b6000608082019050612ff86000830187612b65565b6130056020830186612b65565b6130126040830185612f95565b81810360608301526130248184612be1565b905095945050505050565b600060208201905081810360008301526130498184612b74565b905092915050565b60006020820190506130666000830184612bd2565b92915050565b600060208201905081810360008301526130868184612c1a565b905092915050565b600060208201905081810360008301526130a781612c84565b9050919050565b600060208201905081810360008301526130c781612ca7565b9050919050565b600060208201905081810360008301526130e781612cca565b9050919050565b6000602082019050818103600083015261310781612ced565b9050919050565b6000602082019050818103600083015261312781612d10565b9050919050565b6000602082019050818103600083015261314781612d33565b9050919050565b6000602082019050818103600083015261316781612d56565b9050919050565b6000602082019050818103600083015261318781612d79565b9050919050565b600060208201905081810360008301526131a781612d9c565b9050919050565b600060208201905081810360008301526131c781612dbf565b9050919050565b600060208201905081810360008301526131e781612de2565b9050919050565b6000602082019050818103600083015261320781612e05565b9050919050565b6000602082019050818103600083015261322781612e28565b9050919050565b6000602082019050818103600083015261324781612e4b565b9050919050565b6000602082019050818103600083015261326781612e6e565b9050919050565b6000602082019050818103600083015261328781612e91565b9050919050565b600060208201905081810360008301526132a781612eb4565b9050919050565b600060208201905081810360008301526132c781612ed7565b9050919050565b600060208201905081810360008301526132e781612efa565b9050919050565b6000602082019050818103600083015261330781612f1d565b9050919050565b6000602082019050818103600083015261332781612f40565b9050919050565b6000602082019050818103600083015261334781612f63565b9050919050565b60006020820190506133636000830184612f95565b92915050565b6000613373613384565b905061337f828261360f565b919050565b6000604051905090565b600067ffffffffffffffff8211156133a9576133a8613747565b5b6133b282613776565b9050602081019050919050565b600067ffffffffffffffff8211156133da576133d9613747565b5b6133e382613776565b9050602081019050919050565b6000819050602082019050919050565b600081519050919050565b600081519050919050565b600081519050919050565b6000602082019050919050565b600082825260208201905092915050565b600082825260208201905092915050565b600082825260208201905092915050565b600081905092915050565b600061347782613591565b915061348283613591565b9250827fffffffffffffffffffffffffffffffffffffffffffffffffffffffffffffffff038211156134b7576134b66136ba565b5b828201905092915050565b60006134cd82613591565b91506134d883613591565b9250826134e8576134e76136e9565b5b828204905092915050565b60006134fe82613591565b915061350983613591565b92508282101561351c5761351b6136ba565b5b828203905092915050565b600061353282613571565b9050919050565b60008115159050919050565b60007fffffffff0000000000000000000000000000000000000000000000000000000082169050919050565b600073ffffffffffffffffffffffffffffffffffffffff82169050919050565b6000819050919050565b82818337600083830152505050565b60005b838110156135c85780820151818401526020810190506135ad565b838111156135d7576000848401525b50505050565b600060028204905060018216806135f557607f821691505b6020821081141561360957613608613718565b5b50919050565b61361882613776565b810181811067ffffffffffffffff8211171561363757613636613747565b5b80604052505050565b600061364b82613591565b91507fffffffffffffffffffffffffffffffffffffffffffffffffffffffffffffffff82141561367e5761367d6136ba565b5b600182019050919050565b600061369482613591565b915061369f83613591565b9250826136af576136ae6136e9565b5b828206905092915050565b7f4e487b7100000000000000000000000000000000000000000000000000000000600052601160045260246000fd5b7f4e487b7100000000000000000000000000000000000000000000000000000000600052601260045260246000fd5b7f4e487b7100000000000000000000000000000000000000000000000000000000600052602260045260246000fd5b7f4e487b7100000000000000000000000000000000000000000000000000000000600052604160045260246000fd5b6000601f19601f8301169050919050565b7f455243373231456e756d657261626c653a206f776e657220696e646578206f7560008201527f74206f6620626f756e6473000000000000000000000000000000000000000000602082015250565b7f4552433732313a207472616e7366657220746f206e6f6e20455243373231526560008201527f63656976657220696d706c656d656e7465720000000000000000000000000000602082015250565b7f4f776e61626c653a206e6577206f776e657220697320746865207a65726f206160008201527f6464726573730000000000000000000000000000000000000000000000000000602082015250565b7f4552433732313a20746f6b656e20616c7265616479206d696e74656400000000600082015250565b7f4552433732313a207472616e7366657220746f20746865207a65726f2061646460008201527f7265737300000000000000000000000000000000000000000000000000000000602082015250565b7f4552433732313a20617070726f766520746f2063616c6c657200000000000000600082015250565b7f4552433732313a206f70657261746f7220717565727920666f72206e6f6e657860008201527f697374656e7420746f6b656e0000000000000000000000000000000000000000602082015250565b7f4552433732313a20617070726f76652063616c6c6572206973206e6f74206f7760008201527f6e6572206e6f7220617070726f76656420666f7220616c6c0000000000000000602082015250565b7f4552433732313a2062616c616e636520717565727920666f7220746865207a6560008201527f726f206164647265737300000000000000000000000000000000000000000000602082015250565b7f4552433732313a206f776e657220717565727920666f72206e6f6e657869737460008201527f656e7420746f6b656e0000000000000000000000000000000000000000000000602082015250565b7f45524337323155524953746f726167653a2055524920736574206f66206e6f6e60008201527f6578697374656e7420746f6b656e000000000000000000000000000000000000602082015250565b7f4552433732313a206d696e7420746f20746865207a65726f2061646472657373600082015250565b7f45524337323155524953746f726167653a2055524920717565727920666f722060008201527f6e6f6e6578697374656e7420746f6b656e000000000000000000000000000000602082015250565b7f4552433732313a20617070726f76656420717565727920666f72206e6f6e657860008201527f697374656e7420746f6b656e0000000000000000000000000000000000000000602082015250565b7f4f776e61626c653a2063616c6c6572206973206e6f7420746865206f776e6572600082015250565b7f4552433732313a207472616e73666572206f6620746f6b656e2074686174206960008201527f73206e6f74206f776e0000000000000000000000000000000000000000000000602082015250565b7f6e6577206164647265737320697320746865207a65726f206164647265737300600082015250565b7f4552433732314d657461646174613a2055524920717565727920666f72206e6f60008201527f6e6578697374656e7420746f6b656e0000000000000000000000000000000000602082015250565b7f4552433732313a20617070726f76616c20746f2063757272656e74206f776e6560008201527f7200000000000000000000000000000000000000000000000000000000000000602082015250565b7f616472657373206973206e6f7420746865206f776e6572206f6620746f6b656e600082015250565b7f4552433732313a207472616e736665722063616c6c6572206973206e6f74206f60008201527f776e6572206e6f7220617070726f766564000000000000000000000000000000602082015250565b7f455243373231456e756d657261626c653a20676c6f62616c20696e646578206f60008201527f7574206f6620626f756e64730000000000000000000000000000000000000000602082015250565b613d7681613527565b8114613d8157600080fd5b50565b613d8d81613539565b8114613d9857600080fd5b50565b613da481613545565b8114613daf57600080fd5b50565b613dbb81613591565b8114613dc657600080fd5b5056fea26469706673582212205e2edc73a47eb1482af3a0f2921a0474937aec7172a09a095b54922cfdb8307864736f6c63430008040033",
  "linkReferences": {},
  "deployedLinkReferences": {}
}